{"contracts/VibeToken.sol":{"VibeToken":{"abi":[{"inputs":[{"internalType":"address","name":"admin","type":"address"}],"stateMutability":"nonpayable","type":"constructor"},{"inputs":[],"name":"AccessControlBadConfirmation","type":"error"},{"inputs":[{"internalType":"address","name":"account","type":"address"},{"internalType":"bytes32","name":"neededRole","type":"bytes32"}],"name":"AccessControlUnauthorizedAccount","type":"error"},{"inputs":[],"name":"ArrayLengthMismatch","type":"error"},{"inputs":[{"internalType":"uint256","name":"size","type":"uint256"},{"internalType":"uint256","name":"maxSize","type":"uint256"}],"name":"BatchTooLarge","type":"error"},{"inputs":[],"name":"ECDSAInvalidSignature","type":"error"},{"inputs":[{"internalType":"uint256","name":"length","type":"uint256"}],"name":"ECDSAInvalidSignatureLength","type":"error"},{"inputs":[{"internalType":"bytes32","name":"s","type":"bytes32"}],"name":"ECDSAInvalidSignatureS","type":"error"},{"inputs":[{"internalType":"address","name":"spender","type":"address"},{"internalType":"uint256","name":"allowance","type":"uint256"},{"internalType":"uint256","name":"needed","type":"uint256"}],"name":"ERC20InsufficientAllowance","type":"error"},{"inputs":[{"internalType":"address","name":"sender","type":"address"},{"internalType":"uint256","name":"balance","type":"uint256"},{"internalType":"uint256","name":"needed","type":"uint256"}],"name":"ERC20InsufficientBalance","type":"error"},{"inputs":[{"internalType":"address","name":"approver","type":"address"}],"name":"ERC20InvalidApprover","type":"error"},{"inputs":[{"internalType":"address","name":"receiver","type":"address"}],"name":"ERC20InvalidReceiver","type":"error"},{"inputs":[{"internalType":"address","name":"sender","type":"address"}],"name":"ERC20InvalidSender","type":"error"},{"inputs":[{"internalType":"address","name":"spender","type":"address"}],"name":"ERC20InvalidSpender","type":"error"},{"inputs":[{"internalType":"uint256","name":"deadline","type":"uint256"}],"name":"ERC2612ExpiredSignature","type":"error"},{"inputs":[{"internalType":"address","name":"signer","type":"address"},{"internalType":"address","name":"owner","type":"address"}],"name":"ERC2612InvalidSigner","type":"error"},{"inputs":[],"name":"EnforcedPause","type":"error"},{"inputs":[{"internalType":"uint256","name":"requested","type":"uint256"},{"internalType":"uint256","name":"available","type":"uint256"}],"name":"ExceedsMaxSupply","type":"error"},{"inputs":[{"internalType":"uint256","name":"requested","type":"uint256"},{"internalType":"uint256","name":"limit","type":"uint256"}],"name":"ExceedsMintLimit","type":"error"},{"inputs":[],"name":"ExpectedPause","type":"error"},{"inputs":[{"internalType":"address","name":"account","type":"address"},{"internalType":"uint256","name":"currentNonce","type":"uint256"}],"name":"InvalidAccountNonce","type":"error"},{"inputs":[],"name":"InvalidShortString","type":"error"},{"inputs":[{"internalType":"address","name":"recipient","type":"address"},{"internalType":"uint256","name":"cooldownEnds","type":"uint256"}],"name":"MintCooldownActive","type":"error"},{"inputs":[],"name":"ReentrancyGuardReentrantCall","type":"error"},{"inputs":[{"internalType":"string","name":"str","type":"string"}],"name":"StringTooLong","type":"error"},{"inputs":[],"name":"ZeroAddress","type":"error"},{"inputs":[],"name":"ZeroAmount","type":"error"},{"anonymous":false,"inputs":[{"indexed":true,"internalType":"address","name":"owner","type":"address"},{"indexed":true,"internalType":"address","name":"spender","type":"address"},{"indexed":false,"internalType":"uint256","name":"value","type":"uint256"}],"name":"Approval","type":"event"},{"anonymous":false,"inputs":[{"indexed":true,"internalType":"address","name":"pauser","type":"address"},{"indexed":false,"internalType":"uint256","name":"timestamp","type":"uint256"}],"name":"ContractPaused","type":"event"},{"anonymous":false,"inputs":[{"indexed":true,"internalType":"address","name":"pauser","type":"address"},{"indexed":false,"internalType":"uint256","name":"timestamp","type":"uint256"}],"name":"ContractUnpaused","type":"event"},{"anonymous":false,"inputs":[],"name":"EIP712DomainChanged","type":"event"},{"anonymous":false,"inputs":[{"indexed":true,"internalType":"address","name":"account","type":"address"},{"indexed":true,"internalType":"address","name":"grantedBy","type":"address"}],"name":"MinterAdded","type":"event"},{"anonymous":false,"inputs":[{"indexed":true,"internalType":"address","name":"account","type":"address"},{"indexed":true,"internalType":"address","name":"revokedBy","type":"address"}],"name":"MinterRemoved","type":"event"},{"anonymous":false,"inputs":[{"indexed":false,"internalType":"address","name":"account","type":"address"}],"name":"Paused","type":"event"},{"anonymous":false,"inputs":[{"indexed":true,"internalType":"bytes32","name":"role","type":"bytes32"},{"indexed":true,"internalType":"bytes32","name":"previousAdminRole","type":"bytes32"},{"indexed":true,"internalType":"bytes32","name":"newAdminRole","type":"bytes32"}],"name":"RoleAdminChanged","type":"event"},{"anonymous":false,"inputs":[{"indexed":true,"internalType":"bytes32","name":"role","type":"bytes32"},{"indexed":true,"internalType":"address","name":"account","type":"address"},{"indexed":true,"internalType":"address","name":"sender","type":"address"}],"name":"RoleGranted","type":"event"},{"anonymous":false,"inputs":[{"indexed":true,"internalType":"bytes32","name":"role","type":"bytes32"},{"indexed":true,"internalType":"address","name":"account","type":"address"},{"indexed":true,"internalType":"address","name":"sender","type":"address"}],"name":"RoleRevoked","type":"event"},{"anonymous":false,"inputs":[{"indexed":true,"internalType":"address","name":"to","type":"address"},{"indexed":false,"internalType":"uint256","name":"amount","type":"uint256"},{"indexed":true,"internalType":"address","name":"minter","type":"address"},{"indexed":false,"internalType":"uint256","name":"timestamp","type":"uint256"}],"name":"TokensMinted","type":"event"},{"anonymous":false,"inputs":[{"indexed":true,"internalType":"address","name":"from","type":"address"},{"indexed":true,"internalType":"address","name":"to","type":"address"},{"indexed":false,"internalType":"uint256","name":"value","type":"uint256"}],"name":"Transfer","type":"event"},{"anonymous":false,"inputs":[{"indexed":false,"internalType":"address","name":"account","type":"address"}],"name":"Unpaused","type":"event"},{"inputs":[],"name":"ADMIN_ROLE","outputs":[{"internalType":"bytes32","name":"","type":"bytes32"}],"stateMutability":"view","type":"function"},{"inputs":[],"name":"DEFAULT_ADMIN_ROLE","outputs":[{"internalType":"bytes32","name":"","type":"bytes32"}],"stateMutability":"view","type":"function"},{"inputs":[],"name":"DOMAIN_SEPARATOR","outputs":[{"internalType":"bytes32","name":"","type":"bytes32"}],"stateMutability":"view","type":"function"},{"inputs":[],"name":"MAX_MINT_PER_TX","outputs":[{"internalType":"uint256","name":"","type":"uint256"}],"stateMutability":"view","type":"function"},{"inputs":[],"name":"MAX_SUPPLY","outputs":[{"internalType":"uint256","name":"","type":"uint256"}],"stateMutability":"view","type":"function"},{"inputs":[],"name":"MINTER_ROLE","outputs":[{"internalType":"bytes32","name":"","type":"bytes32"}],"stateMutability":"view","type":"function"},{"inputs":[],"name":"MINT_COOLDOWN","outputs":[{"internalType":"uint256","name":"","type":"uint256"}],"stateMutability":"view","type":"function"},{"inputs":[],"name":"PAUSER_ROLE","outputs":[{"internalType":"bytes32","name":"","type":"bytes32"}],"stateMutability":"view","type":"function"},{"inputs":[{"internalType":"address","name":"account","type":"address"}],"name":"addMinter","outputs":[],"stateMutability":"nonpayable","type":"function"},{"inputs":[{"internalType":"address","name":"owner","type":"address"},{"internalType":"address","name":"spender","type":"address"}],"name":"allowance","outputs":[{"internalType":"uint256","name":"","type":"uint256"}],"stateMutability":"view","type":"function"},{"inputs":[{"internalType":"address","name":"spender","type":"address"},{"internalType":"uint256","name":"value","type":"uint256"}],"name":"approve","outputs":[{"internalType":"bool","name":"","type":"bool"}],"stateMutability":"nonpayable","type":"function"},{"inputs":[{"internalType":"address","name":"account","type":"address"}],"name":"balanceOf","outputs":[{"internalType":"uint256","name":"","type":"uint256"}],"stateMutability":"view","type":"function"},{"inputs":[{"internalType":"address[]","name":"recipients","type":"address[]"},{"internalType":"uint256[]","name":"amounts","type":"uint256[]"}],"name":"batchMint","outputs":[],"stateMutability":"nonpayable","type":"function"},{"inputs":[{"internalType":"uint256","name":"value","type":"uint256"}],"name":"burn","outputs":[],"stateMutability":"nonpayable","type":"function"},{"inputs":[{"internalType":"address","name":"account","type":"address"},{"internalType":"uint256","name":"value","type":"uint256"}],"name":"burnFrom","outputs":[],"stateMutability":"nonpayable","type":"function"},{"inputs":[{"internalType":"address","name":"account","type":"address"}],"name":"canMintTo","outputs":[{"internalType":"bool","name":"canMint","type":"bool"},{"internalType":"uint256","name":"cooldownEnds","type":"uint256"}],"stateMutability":"view","type":"function"},{"inputs":[],"name":"decimals","outputs":[{"internalType":"uint8","name":"","type":"uint8"}],"stateMutability":"view","type":"function"},{"inputs":[],"name":"eip712Domain","outputs":[{"internalType":"bytes1","name":"fields","type":"bytes1"},{"internalType":"string","name":"name","type":"string"},{"internalType":"string","name":"version","type":"string"},{"internalType":"uint256","name":"chainId","type":"uint256"},{"internalType":"address","name":"verifyingContract","type":"address"},{"internalType":"bytes32","name":"salt","type":"bytes32"},{"internalType":"uint256[]","name":"extensions","type":"uint256[]"}],"stateMutability":"view","type":"function"},{"inputs":[{"internalType":"address","name":"to","type":"address"},{"internalType":"uint256","name":"amount","type":"uint256"}],"name":"emergencyMint","outputs":[],"stateMutability":"nonpayable","type":"function"},{"inputs":[{"internalType":"bytes32","name":"role","type":"bytes32"}],"name":"getRoleAdmin","outputs":[{"internalType":"bytes32","name":"","type":"bytes32"}],"stateMutability":"view","type":"function"},{"inputs":[{"internalType":"bytes32","name":"role","type":"bytes32"},{"internalType":"address","name":"account","type":"address"}],"name":"grantRole","outputs":[],"stateMutability":"nonpayable","type":"function"},{"inputs":[{"internalType":"bytes32","name":"role","type":"bytes32"},{"internalType":"address","name":"account","type":"address"}],"name":"hasRole","outputs":[{"internalType":"bool","name":"","type":"bool"}],"stateMutability":"view","type":"function"},{"inputs":[{"internalType":"address","name":"account","type":"address"}],"name":"lastMintTime","outputs":[{"internalType":"uint256","name":"","type":"uint256"}],"stateMutability":"view","type":"function"},{"inputs":[{"internalType":"address","name":"to","type":"address"},{"internalType":"uint256","name":"amount","type":"uint256"}],"name":"mint","outputs":[],"stateMutability":"nonpayable","type":"function"},{"inputs":[],"name":"name","outputs":[{"internalType":"string","name":"","type":"string"}],"stateMutability":"view","type":"function"},{"inputs":[{"internalType":"address","name":"owner","type":"address"}],"name":"nonces","outputs":[{"internalType":"uint256","name":"","type":"uint256"}],"stateMutability":"view","type":"function"},{"inputs":[],"name":"pause","outputs":[],"stateMutability":"nonpayable","type":"function"},{"inputs":[],"name":"paused","outputs":[{"internalType":"bool","name":"","type":"bool"}],"stateMutability":"view","type":"function"},{"inputs":[{"internalType":"address","name":"owner","type":"address"},{"internalType":"address","name":"spender","type":"address"},{"internalType":"uint256","name":"value","type":"uint256"},{"internalType":"uint256","name":"deadline","type":"uint256"},{"internalType":"uint8","name":"v","type":"uint8"},{"internalType":"bytes32","name":"r","type":"bytes32"},{"internalType":"bytes32","name":"s","type":"bytes32"}],"name":"permit","outputs":[],"stateMutability":"nonpayable","type":"function"},{"inputs":[],"name":"remainingMintableSupply","outputs":[{"internalType":"uint256","name":"","type":"uint256"}],"stateMutability":"view","type":"function"},{"inputs":[{"internalType":"address","name":"account","type":"address"}],"name":"removeMinter","outputs":[],"stateMutability":"nonpayable","type":"function"},{"inputs":[{"internalType":"bytes32","name":"role","type":"bytes32"},{"internalType":"address","name":"callerConfirmation","type":"address"}],"name":"renounceRole","outputs":[],"stateMutability":"nonpayable","type":"function"},{"inputs":[{"internalType":"bytes32","name":"role","type":"bytes32"},{"internalType":"address","name":"account","type":"address"}],"name":"revokeRole","outputs":[],"stateMutability":"nonpayable","type":"function"},{"inputs":[{"internalType":"bytes4","name":"interfaceId","type":"bytes4"}],"name":"supportsInterface","outputs":[{"internalType":"bool","name":"","type":"bool"}],"stateMutability":"view","type":"function"},{"inputs":[],"name":"symbol","outputs":[{"internalType":"string","name":"","type":"string"}],"stateMutability":"view","type":"function"},{"inputs":[],"name":"totalMinted","outputs":[{"internalType":"uint256","name":"","type":"uint256"}],"stateMutability":"view","type":"function"},{"inputs":[],"name":"totalSupply","outputs":[{"internalType":"uint256","name":"","type":"uint256"}],"stateMutability":"view","type":"function"},{"inputs":[{"internalType":"address","name":"to","type":"address"},{"internalType":"uint256","name":"value","type":"uint256"}],"name":"transfer","outputs":[{"internalType":"bool","name":"","type":"bool"}],"stateMutability":"nonpayable","type":"function"},{"inputs":[{"internalType":"address","name":"from","type":"address"},{"internalType":"address","name":"to","type":"address"},{"internalType":"uint256","name":"value","type":"uint256"}],"name":"transferFrom","outputs":[{"internalType":"bool","name":"","type":"bool"}],"stateMutability":"nonpayable","type":"function"},{"inputs":[],"name":"unpause","outputs":[],"stateMutability":"nonpayable","type":"function"}],"evm":{"bytecode":{"linkReferences":{},"object":"61016034620005cc57601f62002c7538819003918201601f191683019291906001600160401b038411838510176200036e578160209284926040968752833981010312620005cc5751906001600160a01b0382168203620005cc5780516200006781620005d1565b600981526020810191682b34b132aa37b5b2b760b91b938484528151946200008f86620005d1565b6009865260208601528151620000a581620005d1565b60048152635649424560e01b6020820152825195620000c487620005d1565b60018752603160f81b60208801528051906001600160401b0382116200036e5760035490600182811c92168015620005c1575b6020831014620004905781601f8493116200054c575b50602090601f8311600114620004bd57600092620004b1575b50508160011b916000199060031b1c1916176003555b8051906001600160401b0382116200036e5760045490600182811c92168015620004a6575b6020831014620004905781601f8493116200041b575b50602090601f8311600114620003905760009262000384575b50508160011b916000199060031b1c1916176004555b620001b1836200081a565b93610120948552620001c386620009e1565b93610140948552519020948560e05260208151910120610100958187524660a05283519160208301917f8b73c3c69bb8fe3d512ecc4cf759cc79239f7b179b0ffacaa9a75d522b39400f83528584015260608301524660808301523060a083015260a0825260c082019180831060018060401b038411176200036e578285525190206080523060c0526001600a556001600160a01b038216156200035f575080620002726200029192620005ed565b506200027e816200066e565b506200028a8162000700565b506200078d565b5060008051602062002c35833981519152806000526009602052600182600020019081549160008051602062002c5583398151915292838092557fbd79b86ffe0ab8e8776151514217cd7cacd52c909f66475c3af44e129f0b00ff9283600080a460008051602062002c158339815191528060005260018460002001918383549355600080a4519161205b938462000b9a853960805184611c59015260a05184611d25015260c05184611c23015260e05184611ca801525183611cce015251826106ca015251816106f40152f35b63d92e233d60e01b8152600490fd5b634e487b7160e01b600052604160045260246000fd5b01519050388062000190565b600460009081527f8a35acfbc15ff81a39ae7d344fd709f28e8600b4aa8c65c6b64bfe7fe36bd19b9350601f198516905b818110620004025750908460019594939210620003e8575b505050811b01600455620001a6565b015160001960f88460031b161c19169055388080620003d9565b92936020600181928786015181550195019301620003c1565b60046000529091507f8a35acfbc15ff81a39ae7d344fd709f28e8600b4aa8c65c6b64bfe7fe36bd19b601f840160051c8101916020851062000485575b90601f859493920160051c01905b81811062000475575062000177565b6000815584935060010162000466565b909150819062000458565b634e487b7160e01b600052602260045260246000fd5b91607f169162000161565b01519050388062000126565b6003600090815293507fc2575a0e9e593c00f959f8c92f12db2869c3395a3b0502d05e2516446f71f85b91905b601f198416851062000530576001945083601f1981161062000516575b505050811b016003556200013c565b015160001960f88460031b161c1916905538808062000507565b81810151835560209485019460019093019290910190620004ea565b60036000529091507fc2575a0e9e593c00f959f8c92f12db2869c3395a3b0502d05e2516446f71f85b601f840160051c81019160208510620005b6575b90601f859493920160051c01905b818110620005a657506200010d565b6000815584935060010162000597565b909150819062000589565b91607f1691620000f7565b600080fd5b604081019081106001600160401b038211176200036e57604052565b6001600160a01b031660008181527fec8156718a8372b1db44bb411437d0870f3e3790d4a08526d024ce1b0b668f6b602052604081205490919060ff166200066a5781805260096020526040822081835260205260408220600160ff19825416179055339160008051602062002bf58339815191528180a4600190565b5090565b6001600160a01b031660008181527f5e421a728e346ccaf4d82870ec53d59217a30d3483c6688054a2a67760f2138c602052604081205490919060008051602062002c558339815191529060ff16620006fb5780835260096020526040832082845260205260408320600160ff1982541617905560008051602062002bf5833981519152339380a4600190565b505090565b6001600160a01b031660008181527fd5d09b8f3165a736d25b1a14611612ac91830c1b82012b1c33b2dac7c90a0649602052604081205490919060008051602062002c358339815191529060ff16620006fb5780835260096020526040832082845260205260408320600160ff1982541617905560008051602062002bf5833981519152339380a4600190565b6001600160a01b031660008181527f84574a31e2f767388bfa57bc81ff2590df95d3022c04c363cca3e37ee9608631602052604081205490919060008051602062002c158339815191529060ff16620006fb5780835260096020526040832082845260205260408320600160ff1982541617905560008051602062002bf5833981519152339380a4600190565b805160209081811015620008b75750601f8251116200085657808251920151908083106200084757501790565b82600019910360031b1b161790565b90604051809263305a27a960e01b82528060048301528251908160248401526000935b8285106200089d575050604492506000838284010152601f80199101168101030190fd5b848101820151868601604401529381019385935062000879565b906001600160401b0382116200036e57600654926001938481811c91168015620009d6575b838210146200049057601f81116200099c575b5081601f841160011462000930575092829391839260009462000924575b50501b916000199060031b1c19161760065560ff90565b0151925038806200090d565b919083601f198116600660005284600020946000905b8883831062000981575050501062000967575b505050811b0160065560ff90565b015160001960f88460031b161c1916905538808062000959565b85870151885590960195948501948793509081019062000946565b600660005284601f84600020920160051c820191601f860160051c015b828110620009c9575050620008ef565b60008155018590620009b9565b90607f1690620008dc565b80516020908181101562000a6f5750601f82511162000a0e57808251920151908083106200084757501790565b90604051809263305a27a960e01b82528060048301528251908160248401526000935b82851062000a55575050604492506000838284010152601f80199101168101030190fd5b848101820151868601604401529381019385935062000a31565b906001600160401b0382116200036e57600754926001938481811c9116801562000b8e575b838210146200049057601f811162000b54575b5081601f841160011462000ae8575092829391839260009462000adc575b50501b916000199060031b1c19161760075560ff90565b01519250388062000ac5565b919083601f198116600760005284600020946000905b8883831062000b39575050501062000b1f575b505050811b0160075560ff90565b015160001960f88460031b161c1916905538808062000b11565b85870151885590960195948501948793509081019062000afe565b600760005284601f84600020920160051c820191601f860160051c015b82811062000b8157505062000aa7565b6000815501859062000b71565b90607f169062000a9456fe608060408181526004918236101561001657600080fd5b600092833560e01c91826301ffc9a7146113225750816306fdde031461124f578163095ea7b31461122557816318160ddd1461120657816323b872dd146111c9578163248a9ca31461119e5781632f2ff15d146111745781633092afd5146110e5578163313ce567146110c957816332cb6b0c146110a3578163349f0b901461105a5781633644e5151461103657816336568abe14610ff05781633f4ba83a14610f5d57816340c10f1914610dca57816342966c6814610dac57816343785dc914610c6a5781635c975abb14610c4657816368573107146109cc5781636aa71d181461099457816370a082311461095d57816373912c27146108fb57816375b238fc146108c057816379cc67901461088d5781637ecebe00146108555781638456cb59146107d057816384b0196e146106b25781638ecad7211461068d57816391d148541461064657816395d89b411461055b578163983b2d56146104be578163a217fddf146104a3578163a2309ff814610484578163a9059cbb14610453578163d505accf146102eb578163d5391393146102c2578163d547741f1461027e57508063dd62ed3e14610236578063e63ab1e9146101fc5763f7ee7a43146101dd57600080fd5b346101f857816003193601126101f85760209051610e108152f35b5080fd5b50346101f857816003193601126101f857602090517f65d7a28e3265b37a6474929f336521b332c1681b933f6cb9f3376673440d862a8152f35b50346101f857806003193601126101f857806020926102536113b5565b61025b6113d0565b6001600160a01b0391821683526001865283832091168252845220549051908152f35b919050346102be57806003193601126102be576102ba91356102b560016102a36113d0565b93838752600960205286200154611537565b611713565b5080f35b8280fd5b5050346101f857816003193601126101f857602090516000805160206120068339815191528152f35b839150346101f85760e03660031901126101f8576103076113b5565b61030f6113d0565b906044359260643560843560ff8116810361044f578142116104385760018060a01b0390818516928389526008602052898920908154916001830190558a519060208201927f6e71edae12b1b97f4d1f60370fef10105fa2faae0126114a169c64845d6126c98452868d840152858a1660608401528a608084015260a083015260c082015260c0815260e0810181811067ffffffffffffffff821117610425578b525190206103f3916103ea916103c4611c20565b908c519161190160f01b83526002830152602282015260c43591604260a4359220611b0b565b90929192611b9b565b1681810361040a57866104078787876118fe565b80f35b87516325c0072360e11b815292830152602482015260449150fd5b634e487b7160e01b8b526041875260248bfd5b875163313c898160e11b8152808401839052602490fd5b8680fd5b5050346101f857806003193601126101f85760209061047d6104736113b5565b6024359033611818565b5160018152f35b5050346101f857816003193601126101f857602090600c549051908152f35b5050346101f857816003193601126101f85751908152602090f35b919050346102be5760203660031901126102be576104da6113b5565b906104e3611417565b6001600160a01b03821692831561054d57509061051e6001610523936000805160206120068339815191528752600960205286200154611537565b61155d565b5033907f3c091dafb1d99e4a4c333024492eac3b2cd8bf921a3dd547c937db33be307bb88380a380f35b905163d92e233d60e01b8152fd5b919050346102be57826003193601126102be578051918381549061057e8261178a565b8086529260019280841690811561061b57506001146105bf575b6105bb86866105a9828b03836117f6565b51918291602083526020830190611375565b0390f35b815294507f8a35acfbc15ff81a39ae7d344fd709f28e8600b4aa8c65c6b64bfe7fe36bd19b5b828610610603575050506105a98260206105bb958201019438610598565b805460208787018101919091529095019481016105e5565b90506105bb9750869350602092506105a994915060ff191682840152151560051b8201019438610598565b9050346102be57816003193601126102be578160209360ff926106676113d0565b90358252600986528282206001600160a01b039091168252855220549151911615158152f35b5050346101f857816003193601126101f8576020905169021e19e0c9bab24000008152f35b919050346102be57826003193601126102be576106ee7f0000000000000000000000000000000000000000000000000000000000000000611d4b565b926107187f0000000000000000000000000000000000000000000000000000000000000000611e47565b908251926020928385019585871067ffffffffffffffff8811176107bd57509280610773838896610766998b9996528686528151998a99600f60f81b8b5260e0868c015260e08b0190611375565b91898303908a0152611375565b924660608801523060808801528460a088015286840360c088015251928381520193925b8281106107a657505050500390f35b835185528695509381019392810192600101610797565b634e487b7160e01b845260419052602483fd5b5050346101f857816003193601126101f8576107ea611491565b6107f2611f8a565b600160ff1960055416176005557f62e78cea01bee320cd4e420270b5ea74000d11b0c9f74754ebdbfc544b05a25860208251338152a1514281527f80170b5fcdd2bf1e0660ef4b8851f86685f64d41b1a19de1471947ece8725aac60203392a280f35b5050346101f85760203660031901126101f85760209181906001600160a01b0361087d6113b5565b1681526008845220549051908152f35b5050346101f8573660031901126108bd576104076108a96113b5565b602435906108b8823383611991565b611a64565b80fd5b5050346101f857816003193601126101f857602090517fa49807205ce4d355092ef5a8a18f56e8913cf4a201fbe287825b095693c217758152f35b905082346108bd5760203660031901126108bd576001600160a01b0361091f6113b5565b168152600b6020528281205491610e10830180931161094a5750508151908042101582526020820152f35b634e487b7160e01b825260119052602490fd5b5050346101f85760203660031901126101f85760209181906001600160a01b036109856113b5565b16815280845220549051908152f35b5050346101f85760203660031901126101f85760209181906001600160a01b036109bc6113b5565b168152600b845220549051908152f35b919050346102be57806003193601126102be5767ffffffffffffffff918035838111610c42576109ff90369083016113e6565b602493919394853590811161044f57610a1b90369085016113e6565b919093610a266114ed565b610a2e611fa8565b610a36611f8a565b828203610c345760648211610c19578115610c0b578796885b838110610b595750600254906a52b7d2dcc80cd2e40000009182610a738b83611f01565b11610b205750505050865b818110610a9d5787610a9288600c54611f01565b600c556001600a5580f35b80610ac8610ab6610ab1600194868b611fcb565b611ff1565b610ac183878a611fcb565b3590611f24565b610ad6610ab182858a611fcb565b610ae1828689611fcb565b3586519081524260208201527f68885acc0d4d52967f8c4265578ad97d47a93661cfbf91b06d9ad0cb625a31f0873393868060a01b031692a301610a7e565b8a9450868a918403938411610b47575163adc3cee560e01b81529384015282015260449150fd5b634e487b7160e01b8652601185528286fd5b976001600160a01b03610b70610ab18b878c611fcb565b1615610bfb57610b81898689611fcb565b3515610beb5769021e19e0c9bab240000080610b9e8b888b611fcb565b3511610bc45750610bbd600191610bb68b888b611fcb565b3590611f01565b9801610a4f565b836044918489610bd58e8b8e611fcb565b35905193633a6328b760e11b8552840152820152fd5b8551631f2a200560e01b81528390fd5b855163d92e233d60e01b81528390fd5b8351631f2a200560e01b8152fd5b60648760449386519363bb1cb70b60e01b8552840152820152fd5b835163512509d360e11b8152fd5b8480fd5b5050346101f857816003193601126101f85760209060ff6005541690519015158152f35b9050346102be57816003193601126102be57610c846113b5565b9160243592610c91611417565b610c99611fa8565b6001600160a01b038116928315610d9e578415610d905769021e19e0c9bab2400000808611610d7357506002546a52b7d2dcc80cd2e40000009081610cde8883611f01565b11610d375750505090610d21847f68885acc0d4d52967f8c4265578ad97d47a93661cfbf91b06d9ad0cb625a31f093610d1982600c54611f01565b600c55611f24565b80519384524260208501523393a36001600a5580f35b8793508487918303928311610d60575163adc3cee560e01b815292830152602482015260449150fd5b634e487b7160e01b855260118452602485fd5b8351633a6328b760e11b8152918201869052602482015260449150fd5b8251631f2a200560e01b8152fd5b825163d92e233d60e01b8152fd5b8390346101f85760203660031901126101f857610407903533611a64565b919050346102be57806003193601126102be57610de56113b5565b90602491823593610df46114ed565b610dfc611fa8565b610e04611f8a565b6001600160a01b038216938415610f4e578515610f3f5769021e19e0c9bab2400000808711610f2457506002546a52b7d2dcc80cd2e40000009081610e498983611f01565b11610efd57505090859291333b15610e91575b505081610d2191610d197f68885acc0d4d52967f8c4265578ad97d47a93661cfbf91b06d9ad0cb625a31f09594600c54611f01565b90919250848752600b6020528387205490610e108201809211610eec57814210610ed157505050828552600b602052818520429055839081610d21610e5c565b8451637f39d44160e01b815292830186905282015260449150fd5b634e487b7160e01b88526011835287fd5b9187868a95948403938411610b47575163adc3cee560e01b81529384015282015260449150fd5b8451633a6328b760e11b815292830187905290820152604490fd5b508251631f2a200560e01b8152fd5b50825163d92e233d60e01b8152fd5b9050346102be57826003193601126102be57610f77611491565b6005549060ff821615610fe2575060ff19166005557f5db9ee0a495bf2e6ff9c91a7834c1ba4fdd244a5e8aa4e537bd38aeae4b073aa60208251338152a1514281527f107553d8191d85b405879cf752997865edd48d94e20bda4dd27223c94b31a7cc60203392a280f35b8251638dfc202b60e01b8152fd5b8383346101f857806003193601126101f85761100a6113d0565b90336001600160a01b0383160361102757506102ba919235611713565b5163334bd91960e11b81528390fd5b5050346101f857816003193601126101f857602090611053611c20565b9051908152f35b8383346101f857816003193601126101f857600254916a52b7d2dcc80cd2e4000000928303928311611090576020838351908152f35b634e487b7160e01b815260118452602490fd5b5050346101f857816003193601126101f857602090516a52b7d2dcc80cd2e40000008152f35b5050346101f857816003193601126101f8576020905160128152f35b919050346102be5760203660031901126102be576111016113b5565b9061110a611417565b6001600160a01b03821692831561054d575090611145600161114a936000805160206120068339815191528752600960205286200154611537565b611679565b5033907f4b5ef9a786cf64a7d82ebcf2d5132667edc9faef4ac36260d9a9e52c526b62328380a380f35b919050346102be57806003193601126102be576102ba913561119960016102a36113d0565b6115fe565b9050346102be5760203660031901126102be5781602093600192358152600985522001549051908152f35b5050346101f85760603660031901126101f85760209061047d6111ea6113b5565b6111f26113d0565b60443591611201833383611991565b611818565b5050346101f857816003193601126101f8576020906002549051908152f35b5050346101f857806003193601126101f85760209061047d6112456113b5565b60243590336118fe565b5050346101f857816003193601126101f857805190826003546112718161178a565b808552916001918083169081156112fa575060011461129d575b5050506105a9826105bb9403836117f6565b9450600385527fc2575a0e9e593c00f959f8c92f12db2869c3395a3b0502d05e2516446f71f85b5b8286106112e2575050506105a98260206105bb958201019461128b565b805460208787018101919091529095019481016112c5565b6105bb9750869350602092506105a994915060ff191682840152151560051b8201019461128b565b8491346102be5760203660031901126102be573563ffffffff60e01b81168091036102be5760209250637965db0b60e01b8114908115611364575b5015158152f35b6301ffc9a760e01b1490508361135d565b919082519283825260005b8481106113a1575050826000602080949584010152601f8019910116010190565b602081830181015184830182015201611380565b600435906001600160a01b03821682036113cb57565b600080fd5b602435906001600160a01b03821682036113cb57565b9181601f840112156113cb5782359167ffffffffffffffff83116113cb576020808501948460051b0101116113cb57565b3360009081527f5e421a728e346ccaf4d82870ec53d59217a30d3483c6688054a2a67760f2138c60205260409020547fa49807205ce4d355092ef5a8a18f56e8913cf4a201fbe287825b095693c217759060ff16156114735750565b6044906040519063e2517d3f60e01b82523360048301526024820152fd5b3360009081527f84574a31e2f767388bfa57bc81ff2590df95d3022c04c363cca3e37ee960863160205260409020547f65d7a28e3265b37a6474929f336521b332c1681b933f6cb9f3376673440d862a9060ff16156114735750565b3360009081527fd5d09b8f3165a736d25b1a14611612ac91830c1b82012b1c33b2dac7c90a064960205260409020546000805160206120068339815191529060ff16156114735750565b80600052600960205260406000203360005260205260ff60406000205416156114735750565b6001600160a01b031660008181527fd5d09b8f3165a736d25b1a14611612ac91830c1b82012b1c33b2dac7c90a064960205260408120549091906000805160206120068339815191529060ff166115f95780835260096020526040832082845260205260408320600160ff198254161790557f2f8788117e7eff1d82e926ec794901d17c78024a50270940304540a733656f0d339380a4600190565b505090565b906000918083526009602052604083209160018060a01b03169182845260205260ff604084205416156000146115f95780835260096020526040832082845260205260408320600160ff198254161790557f2f8788117e7eff1d82e926ec794901d17c78024a50270940304540a733656f0d339380a4600190565b6001600160a01b031660008181527fd5d09b8f3165a736d25b1a14611612ac91830c1b82012b1c33b2dac7c90a064960205260408120549091906000805160206120068339815191529060ff16156115f9578083526009602052604083208284526020526040832060ff1981541690557ff6391f5c32d9c69d2a47ea670b442974b53935d1edc7fd64eb21e047a839171b339380a4600190565b906000918083526009602052604083209160018060a01b03169182845260205260ff6040842054166000146115f9578083526009602052604083208284526020526040832060ff1981541690557ff6391f5c32d9c69d2a47ea670b442974b53935d1edc7fd64eb21e047a839171b339380a4600190565b90600182811c921680156117ba575b60208310146117a457565b634e487b7160e01b600052602260045260246000fd5b91607f1691611799565b6040810190811067ffffffffffffffff8211176117e057604052565b634e487b7160e01b600052604160045260246000fd5b90601f8019910116810190811067ffffffffffffffff8211176117e057604052565b916001600160a01b038084169283156118e557169283156118cc5761183b611f8a565b6000908382528160205260408220549083821061189a575091604082827fddf252ad1be2c89b69c2b068fc378daa952ba7f163c4a11628f55a4df523b3ef958760209652828652038282205586815220818154019055604051908152a3565b60405163391434e360e21b81526001600160a01b03919091166004820152602481019190915260448101839052606490fd5b60405163ec442f0560e01b815260006004820152602490fd5b604051634b637e8f60e11b815260006004820152602490fd5b6001600160a01b03908116918215611978571691821561195f5760207f8c5be1e5ebec7d5bd14f71427d1e84f3dd0314c0f7b2291e5b200ac8c7c3b925918360005260018252604060002085600052825280604060002055604051908152a3565b604051634a1406b160e11b815260006004820152602490fd5b60405163e602df0560e01b815260006004820152602490fd5b9160018060a01b0380931691600093838552600160205260409384862091831691828752602052848620549260001984106119d0575b50505050505050565b848410611a3457508015611a1c578115611a04578552600160205283852090855260205203912055388080808080806119c7565b8451634a1406b160e11b815260048101879052602490fd5b845163e602df0560e01b815260048101879052602490fd5b8551637dc7a0d960e11b81526001600160a01b039190911660048201526024810184905260448101859052606490fd5b906001600160a01b0382169081156118e557611a7e611f8a565b60009282845283602052604084205490828210611ad95750817fddf252ad1be2c89b69c2b068fc378daa952ba7f163c4a11628f55a4df523b3ef926020928587528684520360408620558060025403600255604051908152a3565b60405163391434e360e21b81526001600160a01b03919091166004820152602481019190915260448101829052606490fd5b91907f7fffffffffffffffffffffffffffffff5d576e7357a4501ddfe92f46681b20a08411611b8f57926020929160ff608095604051948552168484015260408301526060820152600092839182805260015afa15611b835780516001600160a01b03811615611b7a57918190565b50809160019190565b604051903d90823e3d90fd5b50505060009160039190565b6004811015611c0a5780611bad575050565b60018103611bc75760405163f645eedf60e01b8152600490fd5b60028103611be85760405163fce698f760e01b815260048101839052602490fd5b600314611bf25750565b602490604051906335e2f38360e21b82526004820152fd5b634e487b7160e01b600052602160045260246000fd5b307f00000000000000000000000000000000000000000000000000000000000000006001600160a01b03161480611d22575b15611c7b577f000000000000000000000000000000000000000000000000000000000000000090565b60405160208101907f8b73c3c69bb8fe3d512ecc4cf759cc79239f7b179b0ffacaa9a75d522b39400f82527f000000000000000000000000000000000000000000000000000000000000000060408201527f000000000000000000000000000000000000000000000000000000000000000060608201524660808201523060a082015260a0815260c0810181811067ffffffffffffffff8211176117e05760405251902090565b507f00000000000000000000000000000000000000000000000000000000000000004614611c52565b60ff8114611d895760ff811690601f8211611d775760405191611d6d836117c4565b8252602082015290565b604051632cd44ac360e21b8152600490fd5b50604051600654816000611d9c8361178a565b80835292600190818116908115611e255750600114611dc6575b50611dc3925003826117f6565b90565b6006600090815291507ff652222313e28459528d920b65115c16c04f3efc82aaedc97be59f3f377c0d3f5b848310611e0a5750611dc3935050810160200138611db6565b81935090816020925483858901015201910190918492611df1565b905060209250611dc394915060ff191682840152151560051b82010138611db6565b60ff8114611e695760ff811690601f8211611d775760405191611d6d836117c4565b50604051600754816000611e7c8361178a565b80835292600190818116908115611e255750600114611ea25750611dc3925003826117f6565b6007600090815291507fa66cc928b5edb82af9bd49922954155ab7b0942694bea4ce44661d9a8736c6885b848310611ee65750611dc3935050810160200138611db6565b81935090816020925483858901015201910190918492611ecd565b91908201809211611f0e57565b634e487b7160e01b600052601160045260246000fd5b6001600160a01b03169081156118cc577fddf252ad1be2c89b69c2b068fc378daa952ba7f163c4a11628f55a4df523b3ef6020600092611f62611f8a565b611f6e81600254611f01565b60025584845283825260408420818154019055604051908152a3565b60ff60055416611f9657565b60405163d93c066560e01b8152600490fd5b6002600a5414611fb9576002600a55565b604051633ee5aeb560e01b8152600490fd5b9190811015611fdb5760051b0190565b634e487b7160e01b600052603260045260246000fd5b356001600160a01b03811681036113cb579056fe9f2df0fed2c77648de5860a4cc508cd0818c85b8b8a1ab4ceeef8d981c8956a6a264697066735822122047f49e97297726e328bcbe3afa01204967fe08704b18926055af0f02327f219a64736f6c634300081400332f8788117e7eff1d82e926ec794901d17c78024a50270940304540a733656f0d65d7a28e3265b37a6474929f336521b332c1681b933f6cb9f3376673440d862a9f2df0fed2c77648de5860a4cc508cd0818c85b8b8a1ab4ceeef8d981c8956a6a49807205ce4d355092ef5a8a18f56e8913cf4a201fbe287825b095693c21775","opcodes":"PUSH2 0x160 CALLVALUE PUSH3 0x5CC JUMPI PUSH1 0x1F PUSH3 0x2C75 CODESIZE DUP2 SWAP1 SUB SWAP2 DUP3 ADD PUSH1 0x1F NOT AND DUP4 ADD SWAP3 SWAP2 SWAP1 PUSH1 0x1 PUSH1 0x1 PUSH1 0x40 SHL SUB DUP5 GT DUP4 DUP6 LT OR PUSH3 0x36E JUMPI DUP2 PUSH1 0x20 SWAP3 DUP5 SWAP3 PUSH1 0x40 SWAP7 DUP8 MSTORE DUP4 CODECOPY DUP2 ADD SUB SLT PUSH3 0x5CC JUMPI MLOAD SWAP1 PUSH1 0x1 PUSH1 0x1 PUSH1 0xA0 SHL SUB DUP3 AND DUP3 SUB PUSH3 0x5CC JUMPI DUP1 MLOAD PUSH3 0x67 DUP2 PUSH3 0x5D1 JUMP JUMPDEST PUSH1 0x9 DUP2 MSTORE PUSH1 0x20 DUP2 ADD SWAP2 PUSH9 0x2B34B132AA37B5B2B7 PUSH1 0xB9 SHL SWAP4 DUP5 DUP5 MSTORE DUP2 MLOAD SWAP5 PUSH3 0x8F DUP7 PUSH3 0x5D1 JUMP JUMPDEST PUSH1 0x9 DUP7 MSTORE PUSH1 0x20 DUP7 ADD MSTORE DUP2 MLOAD PUSH3 0xA5 DUP2 PUSH3 0x5D1 JUMP JUMPDEST PUSH1 0x4 DUP2 MSTORE PUSH4 0x56494245 PUSH1 0xE0 SHL PUSH1 0x20 DUP3 ADD MSTORE DUP3 MLOAD SWAP6 PUSH3 0xC4 DUP8 PUSH3 0x5D1 JUMP JUMPDEST PUSH1 0x1 DUP8 MSTORE PUSH1 0x31 PUSH1 0xF8 SHL PUSH1 0x20 DUP9 ADD MSTORE DUP1 MLOAD SWAP1 PUSH1 0x1 PUSH1 0x1 PUSH1 0x40 SHL SUB DUP3 GT PUSH3 0x36E JUMPI PUSH1 0x3 SLOAD SWAP1 PUSH1 0x1 DUP3 DUP2 SHR SWAP3 AND DUP1 ISZERO PUSH3 0x5C1 JUMPI JUMPDEST PUSH1 0x20 DUP4 LT EQ PUSH3 0x490 JUMPI DUP2 PUSH1 0x1F DUP5 SWAP4 GT PUSH3 0x54C JUMPI JUMPDEST POP PUSH1 0x20 SWAP1 PUSH1 0x1F DUP4 GT PUSH1 0x1 EQ PUSH3 0x4BD JUMPI PUSH1 0x0 SWAP3 PUSH3 0x4B1 JUMPI JUMPDEST POP POP DUP2 PUSH1 0x1 SHL SWAP2 PUSH1 0x0 NOT SWAP1 PUSH1 0x3 SHL SHR NOT AND OR PUSH1 0x3 SSTORE JUMPDEST DUP1 MLOAD SWAP1 PUSH1 0x1 PUSH1 0x1 PUSH1 0x40 SHL SUB DUP3 GT PUSH3 0x36E JUMPI PUSH1 0x4 SLOAD SWAP1 PUSH1 0x1 DUP3 DUP2 SHR SWAP3 AND DUP1 ISZERO PUSH3 0x4A6 JUMPI JUMPDEST PUSH1 0x20 DUP4 LT EQ PUSH3 0x490 JUMPI DUP2 PUSH1 0x1F DUP5 SWAP4 GT PUSH3 0x41B JUMPI JUMPDEST POP PUSH1 0x20 SWAP1 PUSH1 0x1F DUP4 GT PUSH1 0x1 EQ PUSH3 0x390 JUMPI PUSH1 0x0 SWAP3 PUSH3 0x384 JUMPI JUMPDEST POP POP DUP2 PUSH1 0x1 SHL SWAP2 PUSH1 0x0 NOT SWAP1 PUSH1 0x3 SHL SHR NOT AND OR PUSH1 0x4 SSTORE JUMPDEST PUSH3 0x1B1 DUP4 PUSH3 0x81A JUMP JUMPDEST SWAP4 PUSH2 0x120 SWAP5 DUP6 MSTORE PUSH3 0x1C3 DUP7 PUSH3 0x9E1 JUMP JUMPDEST SWAP4 PUSH2 0x140 SWAP5 DUP6 MSTORE MLOAD SWAP1 KECCAK256 SWAP5 DUP6 PUSH1 0xE0 MSTORE PUSH1 0x20 DUP2 MLOAD SWAP2 ADD KECCAK256 PUSH2 0x100 SWAP6 DUP2 DUP8 MSTORE CHAINID PUSH1 0xA0 MSTORE DUP4 MLOAD SWAP2 PUSH1 0x20 DUP4 ADD SWAP2 PUSH32 0x8B73C3C69BB8FE3D512ECC4CF759CC79239F7B179B0FFACAA9A75D522B39400F DUP4 MSTORE DUP6 DUP5 ADD MSTORE PUSH1 0x60 DUP4 ADD MSTORE CHAINID PUSH1 0x80 DUP4 ADD MSTORE ADDRESS PUSH1 0xA0 DUP4 ADD MSTORE PUSH1 0xA0 DUP3 MSTORE PUSH1 0xC0 DUP3 ADD SWAP2 DUP1 DUP4 LT PUSH1 0x1 DUP1 PUSH1 0x40 SHL SUB DUP5 GT OR PUSH3 0x36E JUMPI DUP3 DUP6 MSTORE MLOAD SWAP1 KECCAK256 PUSH1 0x80 MSTORE ADDRESS PUSH1 0xC0 MSTORE PUSH1 0x1 PUSH1 0xA SSTORE PUSH1 0x1 PUSH1 0x1 PUSH1 0xA0 SHL SUB DUP3 AND ISZERO PUSH3 0x35F JUMPI POP DUP1 PUSH3 0x272 PUSH3 0x291 SWAP3 PUSH3 0x5ED JUMP JUMPDEST POP PUSH3 0x27E DUP2 PUSH3 0x66E JUMP JUMPDEST POP PUSH3 0x28A DUP2 PUSH3 0x700 JUMP JUMPDEST POP PUSH3 0x78D JUMP JUMPDEST POP PUSH1 0x0 DUP1 MLOAD PUSH1 0x20 PUSH3 0x2C35 DUP4 CODECOPY DUP2 MLOAD SWAP2 MSTORE DUP1 PUSH1 0x0 MSTORE PUSH1 0x9 PUSH1 0x20 MSTORE PUSH1 0x1 DUP3 PUSH1 0x0 KECCAK256 ADD SWAP1 DUP2 SLOAD SWAP2 PUSH1 0x0 DUP1 MLOAD PUSH1 0x20 PUSH3 0x2C55 DUP4 CODECOPY DUP2 MLOAD SWAP2 MSTORE SWAP3 DUP4 DUP1 SWAP3 SSTORE PUSH32 0xBD79B86FFE0AB8E8776151514217CD7CACD52C909F66475C3AF44E129F0B00FF SWAP3 DUP4 PUSH1 0x0 DUP1 LOG4 PUSH1 0x0 DUP1 MLOAD PUSH1 0x20 PUSH3 0x2C15 DUP4 CODECOPY DUP2 MLOAD SWAP2 MSTORE DUP1 PUSH1 0x0 MSTORE PUSH1 0x1 DUP5 PUSH1 0x0 KECCAK256 ADD SWAP2 DUP4 DUP4 SLOAD SWAP4 SSTORE PUSH1 0x0 DUP1 LOG4 MLOAD SWAP2 PUSH2 0x205B SWAP4 DUP5 PUSH3 0xB9A DUP6 CODECOPY PUSH1 0x80 MLOAD DUP5 PUSH2 0x1C59 ADD MSTORE PUSH1 0xA0 MLOAD DUP5 PUSH2 0x1D25 ADD MSTORE PUSH1 0xC0 MLOAD DUP5 PUSH2 0x1C23 ADD MSTORE PUSH1 0xE0 MLOAD DUP5 PUSH2 0x1CA8 ADD MSTORE MLOAD DUP4 PUSH2 0x1CCE ADD MSTORE MLOAD DUP3 PUSH2 0x6CA ADD MSTORE MLOAD DUP2 PUSH2 0x6F4 ADD MSTORE RETURN JUMPDEST PUSH4 0xD92E233D PUSH1 0xE0 SHL DUP2 MSTORE PUSH1 0x4 SWAP1 REVERT JUMPDEST PUSH4 0x4E487B71 PUSH1 0xE0 SHL PUSH1 0x0 MSTORE PUSH1 0x41 PUSH1 0x4 MSTORE PUSH1 0x24 PUSH1 0x0 REVERT JUMPDEST ADD MLOAD SWAP1 POP CODESIZE DUP1 PUSH3 0x190 JUMP JUMPDEST PUSH1 0x4 PUSH1 0x0 SWAP1 DUP2 MSTORE PUSH32 0x8A35ACFBC15FF81A39AE7D344FD709F28E8600B4AA8C65C6B64BFE7FE36BD19B SWAP4 POP PUSH1 0x1F NOT DUP6 AND SWAP1 JUMPDEST DUP2 DUP2 LT PUSH3 0x402 JUMPI POP SWAP1 DUP5 PUSH1 0x1 SWAP6 SWAP5 SWAP4 SWAP3 LT PUSH3 0x3E8 JUMPI JUMPDEST POP POP POP DUP2 SHL ADD PUSH1 0x4 SSTORE PUSH3 0x1A6 JUMP JUMPDEST ADD MLOAD PUSH1 0x0 NOT PUSH1 0xF8 DUP5 PUSH1 0x3 SHL AND SHR NOT AND SWAP1 SSTORE CODESIZE DUP1 DUP1 PUSH3 0x3D9 JUMP JUMPDEST SWAP3 SWAP4 PUSH1 0x20 PUSH1 0x1 DUP2 SWAP3 DUP8 DUP7 ADD MLOAD DUP2 SSTORE ADD SWAP6 ADD SWAP4 ADD PUSH3 0x3C1 JUMP JUMPDEST PUSH1 0x4 PUSH1 0x0 MSTORE SWAP1 SWAP2 POP PUSH32 0x8A35ACFBC15FF81A39AE7D344FD709F28E8600B4AA8C65C6B64BFE7FE36BD19B PUSH1 0x1F DUP5 ADD PUSH1 0x5 SHR DUP2 ADD SWAP2 PUSH1 0x20 DUP6 LT PUSH3 0x485 JUMPI JUMPDEST SWAP1 PUSH1 0x1F DUP6 SWAP5 SWAP4 SWAP3 ADD PUSH1 0x5 SHR ADD SWAP1 JUMPDEST DUP2 DUP2 LT PUSH3 0x475 JUMPI POP PUSH3 0x177 JUMP JUMPDEST PUSH1 0x0 DUP2 SSTORE DUP5 SWAP4 POP PUSH1 0x1 ADD PUSH3 0x466 JUMP JUMPDEST SWAP1 SWAP2 POP DUP2 SWAP1 PUSH3 0x458 JUMP JUMPDEST PUSH4 0x4E487B71 PUSH1 0xE0 SHL PUSH1 0x0 MSTORE PUSH1 0x22 PUSH1 0x4 MSTORE PUSH1 0x24 PUSH1 0x0 REVERT JUMPDEST SWAP2 PUSH1 0x7F AND SWAP2 PUSH3 0x161 JUMP JUMPDEST ADD MLOAD SWAP1 POP CODESIZE DUP1 PUSH3 0x126 JUMP JUMPDEST PUSH1 0x3 PUSH1 0x0 SWAP1 DUP2 MSTORE SWAP4 POP PUSH32 0xC2575A0E9E593C00F959F8C92F12DB2869C3395A3B0502D05E2516446F71F85B SWAP2 SWAP1 JUMPDEST PUSH1 0x1F NOT DUP5 AND DUP6 LT PUSH3 0x530 JUMPI PUSH1 0x1 SWAP5 POP DUP4 PUSH1 0x1F NOT DUP2 AND LT PUSH3 0x516 JUMPI JUMPDEST POP POP POP DUP2 SHL ADD PUSH1 0x3 SSTORE PUSH3 0x13C JUMP JUMPDEST ADD MLOAD PUSH1 0x0 NOT PUSH1 0xF8 DUP5 PUSH1 0x3 SHL AND SHR NOT AND SWAP1 SSTORE CODESIZE DUP1 DUP1 PUSH3 0x507 JUMP JUMPDEST DUP2 DUP2 ADD MLOAD DUP4 SSTORE PUSH1 0x20 SWAP5 DUP6 ADD SWAP5 PUSH1 0x1 SWAP1 SWAP4 ADD SWAP3 SWAP1 SWAP2 ADD SWAP1 PUSH3 0x4EA JUMP JUMPDEST PUSH1 0x3 PUSH1 0x0 MSTORE SWAP1 SWAP2 POP PUSH32 0xC2575A0E9E593C00F959F8C92F12DB2869C3395A3B0502D05E2516446F71F85B PUSH1 0x1F DUP5 ADD PUSH1 0x5 SHR DUP2 ADD SWAP2 PUSH1 0x20 DUP6 LT PUSH3 0x5B6 JUMPI JUMPDEST SWAP1 PUSH1 0x1F DUP6 SWAP5 SWAP4 SWAP3 ADD PUSH1 0x5 SHR ADD SWAP1 JUMPDEST DUP2 DUP2 LT PUSH3 0x5A6 JUMPI POP PUSH3 0x10D JUMP JUMPDEST PUSH1 0x0 DUP2 SSTORE DUP5 SWAP4 POP PUSH1 0x1 ADD PUSH3 0x597 JUMP JUMPDEST SWAP1 SWAP2 POP DUP2 SWAP1 PUSH3 0x589 JUMP JUMPDEST SWAP2 PUSH1 0x7F AND SWAP2 PUSH3 0xF7 JUMP JUMPDEST PUSH1 0x0 DUP1 REVERT JUMPDEST PUSH1 0x40 DUP2 ADD SWAP1 DUP2 LT PUSH1 0x1 PUSH1 0x1 PUSH1 0x40 SHL SUB DUP3 GT OR PUSH3 0x36E JUMPI PUSH1 0x40 MSTORE JUMP JUMPDEST PUSH1 0x1 PUSH1 0x1 PUSH1 0xA0 SHL SUB AND PUSH1 0x0 DUP2 DUP2 MSTORE PUSH32 0xEC8156718A8372B1DB44BB411437D0870F3E3790D4A08526D024CE1B0B668F6B PUSH1 0x20 MSTORE PUSH1 0x40 DUP2 KECCAK256 SLOAD SWAP1 SWAP2 SWAP1 PUSH1 0xFF AND PUSH3 0x66A JUMPI DUP2 DUP1 MSTORE PUSH1 0x9 PUSH1 0x20 MSTORE PUSH1 0x40 DUP3 KECCAK256 DUP2 DUP4 MSTORE PUSH1 0x20 MSTORE PUSH1 0x40 DUP3 KECCAK256 PUSH1 0x1 PUSH1 0xFF NOT DUP3 SLOAD AND OR SWAP1 SSTORE CALLER SWAP2 PUSH1 0x0 DUP1 MLOAD PUSH1 0x20 PUSH3 0x2BF5 DUP4 CODECOPY DUP2 MLOAD SWAP2 MSTORE DUP2 DUP1 LOG4 PUSH1 0x1 SWAP1 JUMP JUMPDEST POP SWAP1 JUMP JUMPDEST PUSH1 0x1 PUSH1 0x1 PUSH1 0xA0 SHL SUB AND PUSH1 0x0 DUP2 DUP2 MSTORE PUSH32 0x5E421A728E346CCAF4D82870EC53D59217A30D3483C6688054A2A67760F2138C PUSH1 0x20 MSTORE PUSH1 0x40 DUP2 KECCAK256 SLOAD SWAP1 SWAP2 SWAP1 PUSH1 0x0 DUP1 MLOAD PUSH1 0x20 PUSH3 0x2C55 DUP4 CODECOPY DUP2 MLOAD SWAP2 MSTORE SWAP1 PUSH1 0xFF AND PUSH3 0x6FB JUMPI DUP1 DUP4 MSTORE PUSH1 0x9 PUSH1 0x20 MSTORE PUSH1 0x40 DUP4 KECCAK256 DUP3 DUP5 MSTORE PUSH1 0x20 MSTORE PUSH1 0x40 DUP4 KECCAK256 PUSH1 0x1 PUSH1 0xFF NOT DUP3 SLOAD AND OR SWAP1 SSTORE PUSH1 0x0 DUP1 MLOAD PUSH1 0x20 PUSH3 0x2BF5 DUP4 CODECOPY DUP2 MLOAD SWAP2 MSTORE CALLER SWAP4 DUP1 LOG4 PUSH1 0x1 SWAP1 JUMP JUMPDEST POP POP SWAP1 JUMP JUMPDEST PUSH1 0x1 PUSH1 0x1 PUSH1 0xA0 SHL SUB AND PUSH1 0x0 DUP2 DUP2 MSTORE PUSH32 0xD5D09B8F3165A736D25B1A14611612AC91830C1B82012B1C33B2DAC7C90A0649 PUSH1 0x20 MSTORE PUSH1 0x40 DUP2 KECCAK256 SLOAD SWAP1 SWAP2 SWAP1 PUSH1 0x0 DUP1 MLOAD PUSH1 0x20 PUSH3 0x2C35 DUP4 CODECOPY DUP2 MLOAD SWAP2 MSTORE SWAP1 PUSH1 0xFF AND PUSH3 0x6FB JUMPI DUP1 DUP4 MSTORE PUSH1 0x9 PUSH1 0x20 MSTORE PUSH1 0x40 DUP4 KECCAK256 DUP3 DUP5 MSTORE PUSH1 0x20 MSTORE PUSH1 0x40 DUP4 KECCAK256 PUSH1 0x1 PUSH1 0xFF NOT DUP3 SLOAD AND OR SWAP1 SSTORE PUSH1 0x0 DUP1 MLOAD PUSH1 0x20 PUSH3 0x2BF5 DUP4 CODECOPY DUP2 MLOAD SWAP2 MSTORE CALLER SWAP4 DUP1 LOG4 PUSH1 0x1 SWAP1 JUMP JUMPDEST PUSH1 0x1 PUSH1 0x1 PUSH1 0xA0 SHL SUB AND PUSH1 0x0 DUP2 DUP2 MSTORE PUSH32 0x84574A31E2F767388BFA57BC81FF2590DF95D3022C04C363CCA3E37EE9608631 PUSH1 0x20 MSTORE PUSH1 0x40 DUP2 KECCAK256 SLOAD SWAP1 SWAP2 SWAP1 PUSH1 0x0 DUP1 MLOAD PUSH1 0x20 PUSH3 0x2C15 DUP4 CODECOPY DUP2 MLOAD SWAP2 MSTORE SWAP1 PUSH1 0xFF AND PUSH3 0x6FB JUMPI DUP1 DUP4 MSTORE PUSH1 0x9 PUSH1 0x20 MSTORE PUSH1 0x40 DUP4 KECCAK256 DUP3 DUP5 MSTORE PUSH1 0x20 MSTORE PUSH1 0x40 DUP4 KECCAK256 PUSH1 0x1 PUSH1 0xFF NOT DUP3 SLOAD AND OR SWAP1 SSTORE PUSH1 0x0 DUP1 MLOAD PUSH1 0x20 PUSH3 0x2BF5 DUP4 CODECOPY DUP2 MLOAD SWAP2 MSTORE CALLER SWAP4 DUP1 LOG4 PUSH1 0x1 SWAP1 JUMP JUMPDEST DUP1 MLOAD PUSH1 0x20 SWAP1 DUP2 DUP2 LT ISZERO PUSH3 0x8B7 JUMPI POP PUSH1 0x1F DUP3 MLOAD GT PUSH3 0x856 JUMPI DUP1 DUP3 MLOAD SWAP3 ADD MLOAD SWAP1 DUP1 DUP4 LT PUSH3 0x847 JUMPI POP OR SWAP1 JUMP JUMPDEST DUP3 PUSH1 0x0 NOT SWAP2 SUB PUSH1 0x3 SHL SHL AND OR SWAP1 JUMP JUMPDEST SWAP1 PUSH1 0x40 MLOAD DUP1 SWAP3 PUSH4 0x305A27A9 PUSH1 0xE0 SHL DUP3 MSTORE DUP1 PUSH1 0x4 DUP4 ADD MSTORE DUP3 MLOAD SWAP1 DUP2 PUSH1 0x24 DUP5 ADD MSTORE PUSH1 0x0 SWAP4 JUMPDEST DUP3 DUP6 LT PUSH3 0x89D JUMPI POP POP PUSH1 0x44 SWAP3 POP PUSH1 0x0 DUP4 DUP3 DUP5 ADD ADD MSTORE PUSH1 0x1F DUP1 NOT SWAP2 ADD AND DUP2 ADD SUB ADD SWAP1 REVERT JUMPDEST DUP5 DUP2 ADD DUP3 ADD MLOAD DUP7 DUP7 ADD PUSH1 0x44 ADD MSTORE SWAP4 DUP2 ADD SWAP4 DUP6 SWAP4 POP PUSH3 0x879 JUMP JUMPDEST SWAP1 PUSH1 0x1 PUSH1 0x1 PUSH1 0x40 SHL SUB DUP3 GT PUSH3 0x36E JUMPI PUSH1 0x6 SLOAD SWAP3 PUSH1 0x1 SWAP4 DUP5 DUP2 DUP2 SHR SWAP2 AND DUP1 ISZERO PUSH3 0x9D6 JUMPI JUMPDEST DUP4 DUP3 LT EQ PUSH3 0x490 JUMPI PUSH1 0x1F DUP2 GT PUSH3 0x99C JUMPI JUMPDEST POP DUP2 PUSH1 0x1F DUP5 GT PUSH1 0x1 EQ PUSH3 0x930 JUMPI POP SWAP3 DUP3 SWAP4 SWAP2 DUP4 SWAP3 PUSH1 0x0 SWAP5 PUSH3 0x924 JUMPI JUMPDEST POP POP SHL SWAP2 PUSH1 0x0 NOT SWAP1 PUSH1 0x3 SHL SHR NOT AND OR PUSH1 0x6 SSTORE PUSH1 0xFF SWAP1 JUMP JUMPDEST ADD MLOAD SWAP3 POP CODESIZE DUP1 PUSH3 0x90D JUMP JUMPDEST SWAP2 SWAP1 DUP4 PUSH1 0x1F NOT DUP2 AND PUSH1 0x6 PUSH1 0x0 MSTORE DUP5 PUSH1 0x0 KECCAK256 SWAP5 PUSH1 0x0 SWAP1 JUMPDEST DUP9 DUP4 DUP4 LT PUSH3 0x981 JUMPI POP POP POP LT PUSH3 0x967 JUMPI JUMPDEST POP POP POP DUP2 SHL ADD PUSH1 0x6 SSTORE PUSH1 0xFF SWAP1 JUMP JUMPDEST ADD MLOAD PUSH1 0x0 NOT PUSH1 0xF8 DUP5 PUSH1 0x3 SHL AND SHR NOT AND SWAP1 SSTORE CODESIZE DUP1 DUP1 PUSH3 0x959 JUMP JUMPDEST DUP6 DUP8 ADD MLOAD DUP9 SSTORE SWAP1 SWAP7 ADD SWAP6 SWAP5 DUP6 ADD SWAP5 DUP8 SWAP4 POP SWAP1 DUP2 ADD SWAP1 PUSH3 0x946 JUMP JUMPDEST PUSH1 0x6 PUSH1 0x0 MSTORE DUP5 PUSH1 0x1F DUP5 PUSH1 0x0 KECCAK256 SWAP3 ADD PUSH1 0x5 SHR DUP3 ADD SWAP2 PUSH1 0x1F DUP7 ADD PUSH1 0x5 SHR ADD JUMPDEST DUP3 DUP2 LT PUSH3 0x9C9 JUMPI POP POP PUSH3 0x8EF JUMP JUMPDEST PUSH1 0x0 DUP2 SSTORE ADD DUP6 SWAP1 PUSH3 0x9B9 JUMP JUMPDEST SWAP1 PUSH1 0x7F AND SWAP1 PUSH3 0x8DC JUMP JUMPDEST DUP1 MLOAD PUSH1 0x20 SWAP1 DUP2 DUP2 LT ISZERO PUSH3 0xA6F JUMPI POP PUSH1 0x1F DUP3 MLOAD GT PUSH3 0xA0E JUMPI DUP1 DUP3 MLOAD SWAP3 ADD MLOAD SWAP1 DUP1 DUP4 LT PUSH3 0x847 JUMPI POP OR SWAP1 JUMP JUMPDEST SWAP1 PUSH1 0x40 MLOAD DUP1 SWAP3 PUSH4 0x305A27A9 PUSH1 0xE0 SHL DUP3 MSTORE DUP1 PUSH1 0x4 DUP4 ADD MSTORE DUP3 MLOAD SWAP1 DUP2 PUSH1 0x24 DUP5 ADD MSTORE PUSH1 0x0 SWAP4 JUMPDEST DUP3 DUP6 LT PUSH3 0xA55 JUMPI POP POP PUSH1 0x44 SWAP3 POP PUSH1 0x0 DUP4 DUP3 DUP5 ADD ADD MSTORE PUSH1 0x1F DUP1 NOT SWAP2 ADD AND DUP2 ADD SUB ADD SWAP1 REVERT JUMPDEST DUP5 DUP2 ADD DUP3 ADD MLOAD DUP7 DUP7 ADD PUSH1 0x44 ADD MSTORE SWAP4 DUP2 ADD SWAP4 DUP6 SWAP4 POP PUSH3 0xA31 JUMP JUMPDEST SWAP1 PUSH1 0x1 PUSH1 0x1 PUSH1 0x40 SHL SUB DUP3 GT PUSH3 0x36E JUMPI PUSH1 0x7 SLOAD SWAP3 PUSH1 0x1 SWAP4 DUP5 DUP2 DUP2 SHR SWAP2 AND DUP1 ISZERO PUSH3 0xB8E JUMPI JUMPDEST DUP4 DUP3 LT EQ PUSH3 0x490 JUMPI PUSH1 0x1F DUP2 GT PUSH3 0xB54 JUMPI JUMPDEST POP DUP2 PUSH1 0x1F DUP5 GT PUSH1 0x1 EQ PUSH3 0xAE8 JUMPI POP SWAP3 DUP3 SWAP4 SWAP2 DUP4 SWAP3 PUSH1 0x0 SWAP5 PUSH3 0xADC JUMPI JUMPDEST POP POP SHL SWAP2 PUSH1 0x0 NOT SWAP1 PUSH1 0x3 SHL SHR NOT AND OR PUSH1 0x7 SSTORE PUSH1 0xFF SWAP1 JUMP JUMPDEST ADD MLOAD SWAP3 POP CODESIZE DUP1 PUSH3 0xAC5 JUMP JUMPDEST SWAP2 SWAP1 DUP4 PUSH1 0x1F NOT DUP2 AND PUSH1 0x7 PUSH1 0x0 MSTORE DUP5 PUSH1 0x0 KECCAK256 SWAP5 PUSH1 0x0 SWAP1 JUMPDEST DUP9 DUP4 DUP4 LT PUSH3 0xB39 JUMPI POP POP POP LT PUSH3 0xB1F JUMPI JUMPDEST POP POP POP DUP2 SHL ADD PUSH1 0x7 SSTORE PUSH1 0xFF SWAP1 JUMP JUMPDEST ADD MLOAD PUSH1 0x0 NOT PUSH1 0xF8 DUP5 PUSH1 0x3 SHL AND SHR NOT AND SWAP1 SSTORE CODESIZE DUP1 DUP1 PUSH3 0xB11 JUMP JUMPDEST DUP6 DUP8 ADD MLOAD DUP9 SSTORE SWAP1 SWAP7 ADD SWAP6 SWAP5 DUP6 ADD SWAP5 DUP8 SWAP4 POP SWAP1 DUP2 ADD SWAP1 PUSH3 0xAFE JUMP JUMPDEST PUSH1 0x7 PUSH1 0x0 MSTORE DUP5 PUSH1 0x1F DUP5 PUSH1 0x0 KECCAK256 SWAP3 ADD PUSH1 0x5 SHR DUP3 ADD SWAP2 PUSH1 0x1F DUP7 ADD PUSH1 0x5 SHR ADD JUMPDEST DUP3 DUP2 LT PUSH3 0xB81 JUMPI POP POP PUSH3 0xAA7 JUMP JUMPDEST PUSH1 0x0 DUP2 SSTORE ADD DUP6 SWAP1 PUSH3 0xB71 JUMP JUMPDEST SWAP1 PUSH1 0x7F AND SWAP1 PUSH3 0xA94 JUMP INVALID PUSH1 0x80 PUSH1 0x40 DUP2 DUP2 MSTORE PUSH1 0x4 SWAP2 DUP3 CALLDATASIZE LT ISZERO PUSH2 0x16 JUMPI PUSH1 0x0 DUP1 REVERT JUMPDEST PUSH1 0x0 SWAP3 DUP4 CALLDATALOAD PUSH1 0xE0 SHR SWAP2 DUP3 PUSH4 0x1FFC9A7 EQ PUSH2 0x1322 JUMPI POP DUP2 PUSH4 0x6FDDE03 EQ PUSH2 0x124F JUMPI DUP2 PUSH4 0x95EA7B3 EQ PUSH2 0x1225 JUMPI DUP2 PUSH4 0x18160DDD EQ PUSH2 0x1206 JUMPI DUP2 PUSH4 0x23B872DD EQ PUSH2 0x11C9 JUMPI DUP2 PUSH4 0x248A9CA3 EQ PUSH2 0x119E JUMPI DUP2 PUSH4 0x2F2FF15D EQ PUSH2 0x1174 JUMPI DUP2 PUSH4 0x3092AFD5 EQ PUSH2 0x10E5 JUMPI DUP2 PUSH4 0x313CE567 EQ PUSH2 0x10C9 JUMPI DUP2 PUSH4 0x32CB6B0C EQ PUSH2 0x10A3 JUMPI DUP2 PUSH4 0x349F0B90 EQ PUSH2 0x105A JUMPI DUP2 PUSH4 0x3644E515 EQ PUSH2 0x1036 JUMPI DUP2 PUSH4 0x36568ABE EQ PUSH2 0xFF0 JUMPI DUP2 PUSH4 0x3F4BA83A EQ PUSH2 0xF5D JUMPI DUP2 PUSH4 0x40C10F19 EQ PUSH2 0xDCA JUMPI DUP2 PUSH4 0x42966C68 EQ PUSH2 0xDAC JUMPI DUP2 PUSH4 0x43785DC9 EQ PUSH2 0xC6A JUMPI DUP2 PUSH4 0x5C975ABB EQ PUSH2 0xC46 JUMPI DUP2 PUSH4 0x68573107 EQ PUSH2 0x9CC JUMPI DUP2 PUSH4 0x6AA71D18 EQ PUSH2 0x994 JUMPI DUP2 PUSH4 0x70A08231 EQ PUSH2 0x95D JUMPI DUP2 PUSH4 0x73912C27 EQ PUSH2 0x8FB JUMPI DUP2 PUSH4 0x75B238FC EQ PUSH2 0x8C0 JUMPI DUP2 PUSH4 0x79CC6790 EQ PUSH2 0x88D JUMPI DUP2 PUSH4 0x7ECEBE00 EQ PUSH2 0x855 JUMPI DUP2 PUSH4 0x8456CB59 EQ PUSH2 0x7D0 JUMPI DUP2 PUSH4 0x84B0196E EQ PUSH2 0x6B2 JUMPI DUP2 PUSH4 0x8ECAD721 EQ PUSH2 0x68D JUMPI DUP2 PUSH4 0x91D14854 EQ PUSH2 0x646 JUMPI DUP2 PUSH4 0x95D89B41 EQ PUSH2 0x55B JUMPI DUP2 PUSH4 0x983B2D56 EQ PUSH2 0x4BE JUMPI DUP2 PUSH4 0xA217FDDF EQ PUSH2 0x4A3 JUMPI DUP2 PUSH4 0xA2309FF8 EQ PUSH2 0x484 JUMPI DUP2 PUSH4 0xA9059CBB EQ PUSH2 0x453 JUMPI DUP2 PUSH4 0xD505ACCF EQ PUSH2 0x2EB JUMPI DUP2 PUSH4 0xD5391393 EQ PUSH2 0x2C2 JUMPI DUP2 PUSH4 0xD547741F EQ PUSH2 0x27E JUMPI POP DUP1 PUSH4 0xDD62ED3E EQ PUSH2 0x236 JUMPI DUP1 PUSH4 0xE63AB1E9 EQ PUSH2 0x1FC JUMPI PUSH4 0xF7EE7A43 EQ PUSH2 0x1DD JUMPI PUSH1 0x0 DUP1 REVERT JUMPDEST CALLVALUE PUSH2 0x1F8 JUMPI DUP2 PUSH1 0x3 NOT CALLDATASIZE ADD SLT PUSH2 0x1F8 JUMPI PUSH1 0x20 SWAP1 MLOAD PUSH2 0xE10 DUP2 MSTORE RETURN JUMPDEST POP DUP1 REVERT JUMPDEST POP CALLVALUE PUSH2 0x1F8 JUMPI DUP2 PUSH1 0x3 NOT CALLDATASIZE ADD SLT PUSH2 0x1F8 JUMPI PUSH1 0x20 SWAP1 MLOAD PUSH32 0x65D7A28E3265B37A6474929F336521B332C1681B933F6CB9F3376673440D862A DUP2 MSTORE RETURN JUMPDEST POP CALLVALUE PUSH2 0x1F8 JUMPI DUP1 PUSH1 0x3 NOT CALLDATASIZE ADD SLT PUSH2 0x1F8 JUMPI DUP1 PUSH1 0x20 SWAP3 PUSH2 0x253 PUSH2 0x13B5 JUMP JUMPDEST PUSH2 0x25B PUSH2 0x13D0 JUMP JUMPDEST PUSH1 0x1 PUSH1 0x1 PUSH1 0xA0 SHL SUB SWAP2 DUP3 AND DUP4 MSTORE PUSH1 0x1 DUP7 MSTORE DUP4 DUP4 KECCAK256 SWAP2 AND DUP3 MSTORE DUP5 MSTORE KECCAK256 SLOAD SWAP1 MLOAD SWAP1 DUP2 MSTORE RETURN JUMPDEST SWAP2 SWAP1 POP CALLVALUE PUSH2 0x2BE JUMPI DUP1 PUSH1 0x3 NOT CALLDATASIZE ADD SLT PUSH2 0x2BE JUMPI PUSH2 0x2BA SWAP2 CALLDATALOAD PUSH2 0x2B5 PUSH1 0x1 PUSH2 0x2A3 PUSH2 0x13D0 JUMP JUMPDEST SWAP4 DUP4 DUP8 MSTORE PUSH1 0x9 PUSH1 0x20 MSTORE DUP7 KECCAK256 ADD SLOAD PUSH2 0x1537 JUMP JUMPDEST PUSH2 0x1713 JUMP JUMPDEST POP DUP1 RETURN JUMPDEST DUP3 DUP1 REVERT JUMPDEST POP POP CALLVALUE PUSH2 0x1F8 JUMPI DUP2 PUSH1 0x3 NOT CALLDATASIZE ADD SLT PUSH2 0x1F8 JUMPI PUSH1 0x20 SWAP1 MLOAD PUSH1 0x0 DUP1 MLOAD PUSH1 0x20 PUSH2 0x2006 DUP4 CODECOPY DUP2 MLOAD SWAP2 MSTORE DUP2 MSTORE RETURN JUMPDEST DUP4 SWAP2 POP CALLVALUE PUSH2 0x1F8 JUMPI PUSH1 0xE0 CALLDATASIZE PUSH1 0x3 NOT ADD SLT PUSH2 0x1F8 JUMPI PUSH2 0x307 PUSH2 0x13B5 JUMP JUMPDEST PUSH2 0x30F PUSH2 0x13D0 JUMP JUMPDEST SWAP1 PUSH1 0x44 CALLDATALOAD SWAP3 PUSH1 0x64 CALLDATALOAD PUSH1 0x84 CALLDATALOAD PUSH1 0xFF DUP2 AND DUP2 SUB PUSH2 0x44F JUMPI DUP2 TIMESTAMP GT PUSH2 0x438 JUMPI PUSH1 0x1 DUP1 PUSH1 0xA0 SHL SUB SWAP1 DUP2 DUP6 AND SWAP3 DUP4 DUP10 MSTORE PUSH1 0x8 PUSH1 0x20 MSTORE DUP10 DUP10 KECCAK256 SWAP1 DUP2 SLOAD SWAP2 PUSH1 0x1 DUP4 ADD SWAP1 SSTORE DUP11 MLOAD SWAP1 PUSH1 0x20 DUP3 ADD SWAP3 PUSH32 0x6E71EDAE12B1B97F4D1F60370FEF10105FA2FAAE0126114A169C64845D6126C9 DUP5 MSTORE DUP7 DUP14 DUP5 ADD MSTORE DUP6 DUP11 AND PUSH1 0x60 DUP5 ADD MSTORE DUP11 PUSH1 0x80 DUP5 ADD MSTORE PUSH1 0xA0 DUP4 ADD MSTORE PUSH1 0xC0 DUP3 ADD MSTORE PUSH1 0xC0 DUP2 MSTORE PUSH1 0xE0 DUP2 ADD DUP2 DUP2 LT PUSH8 0xFFFFFFFFFFFFFFFF DUP3 GT OR PUSH2 0x425 JUMPI DUP12 MSTORE MLOAD SWAP1 KECCAK256 PUSH2 0x3F3 SWAP2 PUSH2 0x3EA SWAP2 PUSH2 0x3C4 PUSH2 0x1C20 JUMP JUMPDEST SWAP1 DUP13 MLOAD SWAP2 PUSH2 0x1901 PUSH1 0xF0 SHL DUP4 MSTORE PUSH1 0x2 DUP4 ADD MSTORE PUSH1 0x22 DUP3 ADD MSTORE PUSH1 0xC4 CALLDATALOAD SWAP2 PUSH1 0x42 PUSH1 0xA4 CALLDATALOAD SWAP3 KECCAK256 PUSH2 0x1B0B JUMP JUMPDEST SWAP1 SWAP3 SWAP2 SWAP3 PUSH2 0x1B9B JUMP JUMPDEST AND DUP2 DUP2 SUB PUSH2 0x40A JUMPI DUP7 PUSH2 0x407 DUP8 DUP8 DUP8 PUSH2 0x18FE JUMP JUMPDEST DUP1 RETURN JUMPDEST DUP8 MLOAD PUSH4 0x25C00723 PUSH1 0xE1 SHL DUP2 MSTORE SWAP3 DUP4 ADD MSTORE PUSH1 0x24 DUP3 ADD MSTORE PUSH1 0x44 SWAP2 POP REVERT JUMPDEST PUSH4 0x4E487B71 PUSH1 0xE0 SHL DUP12 MSTORE PUSH1 0x41 DUP8 MSTORE PUSH1 0x24 DUP12 REVERT JUMPDEST DUP8 MLOAD PUSH4 0x313C8981 PUSH1 0xE1 SHL DUP2 MSTORE DUP1 DUP5 ADD DUP4 SWAP1 MSTORE PUSH1 0x24 SWAP1 REVERT JUMPDEST DUP7 DUP1 REVERT JUMPDEST POP POP CALLVALUE PUSH2 0x1F8 JUMPI DUP1 PUSH1 0x3 NOT CALLDATASIZE ADD SLT PUSH2 0x1F8 JUMPI PUSH1 0x20 SWAP1 PUSH2 0x47D PUSH2 0x473 PUSH2 0x13B5 JUMP JUMPDEST PUSH1 0x24 CALLDATALOAD SWAP1 CALLER PUSH2 0x1818 JUMP JUMPDEST MLOAD PUSH1 0x1 DUP2 MSTORE RETURN JUMPDEST POP POP CALLVALUE PUSH2 0x1F8 JUMPI DUP2 PUSH1 0x3 NOT CALLDATASIZE ADD SLT PUSH2 0x1F8 JUMPI PUSH1 0x20 SWAP1 PUSH1 0xC SLOAD SWAP1 MLOAD SWAP1 DUP2 MSTORE RETURN JUMPDEST POP POP CALLVALUE PUSH2 0x1F8 JUMPI DUP2 PUSH1 0x3 NOT CALLDATASIZE ADD SLT PUSH2 0x1F8 JUMPI MLOAD SWAP1 DUP2 MSTORE PUSH1 0x20 SWAP1 RETURN JUMPDEST SWAP2 SWAP1 POP CALLVALUE PUSH2 0x2BE JUMPI PUSH1 0x20 CALLDATASIZE PUSH1 0x3 NOT ADD SLT PUSH2 0x2BE JUMPI PUSH2 0x4DA PUSH2 0x13B5 JUMP JUMPDEST SWAP1 PUSH2 0x4E3 PUSH2 0x1417 JUMP JUMPDEST PUSH1 0x1 PUSH1 0x1 PUSH1 0xA0 SHL SUB DUP3 AND SWAP3 DUP4 ISZERO PUSH2 0x54D JUMPI POP SWAP1 PUSH2 0x51E PUSH1 0x1 PUSH2 0x523 SWAP4 PUSH1 0x0 DUP1 MLOAD PUSH1 0x20 PUSH2 0x2006 DUP4 CODECOPY DUP2 MLOAD SWAP2 MSTORE DUP8 MSTORE PUSH1 0x9 PUSH1 0x20 MSTORE DUP7 KECCAK256 ADD SLOAD PUSH2 0x1537 JUMP JUMPDEST PUSH2 0x155D JUMP JUMPDEST POP CALLER SWAP1 PUSH32 0x3C091DAFB1D99E4A4C333024492EAC3B2CD8BF921A3DD547C937DB33BE307BB8 DUP4 DUP1 LOG3 DUP1 RETURN JUMPDEST SWAP1 MLOAD PUSH4 0xD92E233D PUSH1 0xE0 SHL DUP2 MSTORE REVERT JUMPDEST SWAP2 SWAP1 POP CALLVALUE PUSH2 0x2BE JUMPI DUP3 PUSH1 0x3 NOT CALLDATASIZE ADD SLT PUSH2 0x2BE JUMPI DUP1 MLOAD SWAP2 DUP4 DUP2 SLOAD SWAP1 PUSH2 0x57E DUP3 PUSH2 0x178A JUMP JUMPDEST DUP1 DUP7 MSTORE SWAP3 PUSH1 0x1 SWAP3 DUP1 DUP5 AND SWAP1 DUP2 ISZERO PUSH2 0x61B JUMPI POP PUSH1 0x1 EQ PUSH2 0x5BF JUMPI JUMPDEST PUSH2 0x5BB DUP7 DUP7 PUSH2 0x5A9 DUP3 DUP12 SUB DUP4 PUSH2 0x17F6 JUMP JUMPDEST MLOAD SWAP2 DUP3 SWAP2 PUSH1 0x20 DUP4 MSTORE PUSH1 0x20 DUP4 ADD SWAP1 PUSH2 0x1375 JUMP JUMPDEST SUB SWAP1 RETURN JUMPDEST DUP2 MSTORE SWAP5 POP PUSH32 0x8A35ACFBC15FF81A39AE7D344FD709F28E8600B4AA8C65C6B64BFE7FE36BD19B JUMPDEST DUP3 DUP7 LT PUSH2 0x603 JUMPI POP POP POP PUSH2 0x5A9 DUP3 PUSH1 0x20 PUSH2 0x5BB SWAP6 DUP3 ADD ADD SWAP5 CODESIZE PUSH2 0x598 JUMP JUMPDEST DUP1 SLOAD PUSH1 0x20 DUP8 DUP8 ADD DUP2 ADD SWAP2 SWAP1 SWAP2 MSTORE SWAP1 SWAP6 ADD SWAP5 DUP2 ADD PUSH2 0x5E5 JUMP JUMPDEST SWAP1 POP PUSH2 0x5BB SWAP8 POP DUP7 SWAP4 POP PUSH1 0x20 SWAP3 POP PUSH2 0x5A9 SWAP5 SWAP2 POP PUSH1 0xFF NOT AND DUP3 DUP5 ADD MSTORE ISZERO ISZERO PUSH1 0x5 SHL DUP3 ADD ADD SWAP5 CODESIZE PUSH2 0x598 JUMP JUMPDEST SWAP1 POP CALLVALUE PUSH2 0x2BE JUMPI DUP2 PUSH1 0x3 NOT CALLDATASIZE ADD SLT PUSH2 0x2BE JUMPI DUP2 PUSH1 0x20 SWAP4 PUSH1 0xFF SWAP3 PUSH2 0x667 PUSH2 0x13D0 JUMP JUMPDEST SWAP1 CALLDATALOAD DUP3 MSTORE PUSH1 0x9 DUP7 MSTORE DUP3 DUP3 KECCAK256 PUSH1 0x1 PUSH1 0x1 PUSH1 0xA0 SHL SUB SWAP1 SWAP2 AND DUP3 MSTORE DUP6 MSTORE KECCAK256 SLOAD SWAP2 MLOAD SWAP2 AND ISZERO ISZERO DUP2 MSTORE RETURN JUMPDEST POP POP CALLVALUE PUSH2 0x1F8 JUMPI DUP2 PUSH1 0x3 NOT CALLDATASIZE ADD SLT PUSH2 0x1F8 JUMPI PUSH1 0x20 SWAP1 MLOAD PUSH10 0x21E19E0C9BAB2400000 DUP2 MSTORE RETURN JUMPDEST SWAP2 SWAP1 POP CALLVALUE PUSH2 0x2BE JUMPI DUP3 PUSH1 0x3 NOT CALLDATASIZE ADD SLT PUSH2 0x2BE JUMPI PUSH2 0x6EE PUSH32 0x0 PUSH2 0x1D4B JUMP JUMPDEST SWAP3 PUSH2 0x718 PUSH32 0x0 PUSH2 0x1E47 JUMP JUMPDEST SWAP1 DUP3 MLOAD SWAP3 PUSH1 0x20 SWAP3 DUP4 DUP6 ADD SWAP6 DUP6 DUP8 LT PUSH8 0xFFFFFFFFFFFFFFFF DUP9 GT OR PUSH2 0x7BD JUMPI POP SWAP3 DUP1 PUSH2 0x773 DUP4 DUP9 SWAP7 PUSH2 0x766 SWAP10 DUP12 SWAP10 SWAP7 MSTORE DUP7 DUP7 MSTORE DUP2 MLOAD SWAP10 DUP11 SWAP10 PUSH1 0xF PUSH1 0xF8 SHL DUP12 MSTORE PUSH1 0xE0 DUP7 DUP13 ADD MSTORE PUSH1 0xE0 DUP12 ADD SWAP1 PUSH2 0x1375 JUMP JUMPDEST SWAP2 DUP10 DUP4 SUB SWAP1 DUP11 ADD MSTORE PUSH2 0x1375 JUMP JUMPDEST SWAP3 CHAINID PUSH1 0x60 DUP9 ADD MSTORE ADDRESS PUSH1 0x80 DUP9 ADD MSTORE DUP5 PUSH1 0xA0 DUP9 ADD MSTORE DUP7 DUP5 SUB PUSH1 0xC0 DUP9 ADD MSTORE MLOAD SWAP3 DUP4 DUP2 MSTORE ADD SWAP4 SWAP3 JUMPDEST DUP3 DUP2 LT PUSH2 0x7A6 JUMPI POP POP POP POP SUB SWAP1 RETURN JUMPDEST DUP4 MLOAD DUP6 MSTORE DUP7 SWAP6 POP SWAP4 DUP2 ADD SWAP4 SWAP3 DUP2 ADD SWAP3 PUSH1 0x1 ADD PUSH2 0x797 JUMP JUMPDEST PUSH4 0x4E487B71 PUSH1 0xE0 SHL DUP5 MSTORE PUSH1 0x41 SWAP1 MSTORE PUSH1 0x24 DUP4 REVERT JUMPDEST POP POP CALLVALUE PUSH2 0x1F8 JUMPI DUP2 PUSH1 0x3 NOT CALLDATASIZE ADD SLT PUSH2 0x1F8 JUMPI PUSH2 0x7EA PUSH2 0x1491 JUMP JUMPDEST PUSH2 0x7F2 PUSH2 0x1F8A JUMP JUMPDEST PUSH1 0x1 PUSH1 0xFF NOT PUSH1 0x5 SLOAD AND OR PUSH1 0x5 SSTORE PUSH32 0x62E78CEA01BEE320CD4E420270B5EA74000D11B0C9F74754EBDBFC544B05A258 PUSH1 0x20 DUP3 MLOAD CALLER DUP2 MSTORE LOG1 MLOAD TIMESTAMP DUP2 MSTORE PUSH32 0x80170B5FCDD2BF1E0660EF4B8851F86685F64D41B1A19DE1471947ECE8725AAC PUSH1 0x20 CALLER SWAP3 LOG2 DUP1 RETURN JUMPDEST POP POP CALLVALUE PUSH2 0x1F8 JUMPI PUSH1 0x20 CALLDATASIZE PUSH1 0x3 NOT ADD SLT PUSH2 0x1F8 JUMPI PUSH1 0x20 SWAP2 DUP2 SWAP1 PUSH1 0x1 PUSH1 0x1 PUSH1 0xA0 SHL SUB PUSH2 0x87D PUSH2 0x13B5 JUMP JUMPDEST AND DUP2 MSTORE PUSH1 0x8 DUP5 MSTORE KECCAK256 SLOAD SWAP1 MLOAD SWAP1 DUP2 MSTORE RETURN JUMPDEST POP POP CALLVALUE PUSH2 0x1F8 JUMPI CALLDATASIZE PUSH1 0x3 NOT ADD SLT PUSH2 0x8BD JUMPI PUSH2 0x407 PUSH2 0x8A9 PUSH2 0x13B5 JUMP JUMPDEST PUSH1 0x24 CALLDATALOAD SWAP1 PUSH2 0x8B8 DUP3 CALLER DUP4 PUSH2 0x1991 JUMP JUMPDEST PUSH2 0x1A64 JUMP JUMPDEST DUP1 REVERT JUMPDEST POP POP CALLVALUE PUSH2 0x1F8 JUMPI DUP2 PUSH1 0x3 NOT CALLDATASIZE ADD SLT PUSH2 0x1F8 JUMPI PUSH1 0x20 SWAP1 MLOAD PUSH32 0xA49807205CE4D355092EF5A8A18F56E8913CF4A201FBE287825B095693C21775 DUP2 MSTORE RETURN JUMPDEST SWAP1 POP DUP3 CALLVALUE PUSH2 0x8BD JUMPI PUSH1 0x20 CALLDATASIZE PUSH1 0x3 NOT ADD SLT PUSH2 0x8BD JUMPI PUSH1 0x1 PUSH1 0x1 PUSH1 0xA0 SHL SUB PUSH2 0x91F PUSH2 0x13B5 JUMP JUMPDEST AND DUP2 MSTORE PUSH1 0xB PUSH1 0x20 MSTORE DUP3 DUP2 KECCAK256 SLOAD SWAP2 PUSH2 0xE10 DUP4 ADD DUP1 SWAP4 GT PUSH2 0x94A JUMPI POP POP DUP2 MLOAD SWAP1 DUP1 TIMESTAMP LT ISZERO DUP3 MSTORE PUSH1 0x20 DUP3 ADD MSTORE RETURN JUMPDEST PUSH4 0x4E487B71 PUSH1 0xE0 SHL DUP3 MSTORE PUSH1 0x11 SWAP1 MSTORE PUSH1 0x24 SWAP1 REVERT JUMPDEST POP POP CALLVALUE PUSH2 0x1F8 JUMPI PUSH1 0x20 CALLDATASIZE PUSH1 0x3 NOT ADD SLT PUSH2 0x1F8 JUMPI PUSH1 0x20 SWAP2 DUP2 SWAP1 PUSH1 0x1 PUSH1 0x1 PUSH1 0xA0 SHL SUB PUSH2 0x985 PUSH2 0x13B5 JUMP JUMPDEST AND DUP2 MSTORE DUP1 DUP5 MSTORE KECCAK256 SLOAD SWAP1 MLOAD SWAP1 DUP2 MSTORE RETURN JUMPDEST POP POP CALLVALUE PUSH2 0x1F8 JUMPI PUSH1 0x20 CALLDATASIZE PUSH1 0x3 NOT ADD SLT PUSH2 0x1F8 JUMPI PUSH1 0x20 SWAP2 DUP2 SWAP1 PUSH1 0x1 PUSH1 0x1 PUSH1 0xA0 SHL SUB PUSH2 0x9BC PUSH2 0x13B5 JUMP JUMPDEST AND DUP2 MSTORE PUSH1 0xB DUP5 MSTORE KECCAK256 SLOAD SWAP1 MLOAD SWAP1 DUP2 MSTORE RETURN JUMPDEST SWAP2 SWAP1 POP CALLVALUE PUSH2 0x2BE JUMPI DUP1 PUSH1 0x3 NOT CALLDATASIZE ADD SLT PUSH2 0x2BE JUMPI PUSH8 0xFFFFFFFFFFFFFFFF SWAP2 DUP1 CALLDATALOAD DUP4 DUP2 GT PUSH2 0xC42 JUMPI PUSH2 0x9FF SWAP1 CALLDATASIZE SWAP1 DUP4 ADD PUSH2 0x13E6 JUMP JUMPDEST PUSH1 0x24 SWAP4 SWAP2 SWAP4 SWAP5 DUP6 CALLDATALOAD SWAP1 DUP2 GT PUSH2 0x44F JUMPI PUSH2 0xA1B SWAP1 CALLDATASIZE SWAP1 DUP6 ADD PUSH2 0x13E6 JUMP JUMPDEST SWAP2 SWAP1 SWAP4 PUSH2 0xA26 PUSH2 0x14ED JUMP JUMPDEST PUSH2 0xA2E PUSH2 0x1FA8 JUMP JUMPDEST PUSH2 0xA36 PUSH2 0x1F8A JUMP JUMPDEST DUP3 DUP3 SUB PUSH2 0xC34 JUMPI PUSH1 0x64 DUP3 GT PUSH2 0xC19 JUMPI DUP2 ISZERO PUSH2 0xC0B JUMPI DUP8 SWAP7 DUP9 JUMPDEST DUP4 DUP2 LT PUSH2 0xB59 JUMPI POP PUSH1 0x2 SLOAD SWAP1 PUSH11 0x52B7D2DCC80CD2E4000000 SWAP2 DUP3 PUSH2 0xA73 DUP12 DUP4 PUSH2 0x1F01 JUMP JUMPDEST GT PUSH2 0xB20 JUMPI POP POP POP POP DUP7 JUMPDEST DUP2 DUP2 LT PUSH2 0xA9D JUMPI DUP8 PUSH2 0xA92 DUP9 PUSH1 0xC SLOAD PUSH2 0x1F01 JUMP JUMPDEST PUSH1 0xC SSTORE PUSH1 0x1 PUSH1 0xA SSTORE DUP1 RETURN JUMPDEST DUP1 PUSH2 0xAC8 PUSH2 0xAB6 PUSH2 0xAB1 PUSH1 0x1 SWAP5 DUP7 DUP12 PUSH2 0x1FCB JUMP JUMPDEST PUSH2 0x1FF1 JUMP JUMPDEST PUSH2 0xAC1 DUP4 DUP8 DUP11 PUSH2 0x1FCB JUMP JUMPDEST CALLDATALOAD SWAP1 PUSH2 0x1F24 JUMP JUMPDEST PUSH2 0xAD6 PUSH2 0xAB1 DUP3 DUP6 DUP11 PUSH2 0x1FCB JUMP JUMPDEST PUSH2 0xAE1 DUP3 DUP7 DUP10 PUSH2 0x1FCB JUMP JUMPDEST CALLDATALOAD DUP7 MLOAD SWAP1 DUP2 MSTORE TIMESTAMP PUSH1 0x20 DUP3 ADD MSTORE PUSH32 0x68885ACC0D4D52967F8C4265578AD97D47A93661CFBF91B06D9AD0CB625A31F0 DUP8 CALLER SWAP4 DUP7 DUP1 PUSH1 0xA0 SHL SUB AND SWAP3 LOG3 ADD PUSH2 0xA7E JUMP JUMPDEST DUP11 SWAP5 POP DUP7 DUP11 SWAP2 DUP5 SUB SWAP4 DUP5 GT PUSH2 0xB47 JUMPI MLOAD PUSH4 0xADC3CEE5 PUSH1 0xE0 SHL DUP2 MSTORE SWAP4 DUP5 ADD MSTORE DUP3 ADD MSTORE PUSH1 0x44 SWAP2 POP REVERT JUMPDEST PUSH4 0x4E487B71 PUSH1 0xE0 SHL DUP7 MSTORE PUSH1 0x11 DUP6 MSTORE DUP3 DUP7 REVERT JUMPDEST SWAP8 PUSH1 0x1 PUSH1 0x1 PUSH1 0xA0 SHL SUB PUSH2 0xB70 PUSH2 0xAB1 DUP12 DUP8 DUP13 PUSH2 0x1FCB JUMP JUMPDEST AND ISZERO PUSH2 0xBFB JUMPI PUSH2 0xB81 DUP10 DUP7 DUP10 PUSH2 0x1FCB JUMP JUMPDEST CALLDATALOAD ISZERO PUSH2 0xBEB JUMPI PUSH10 0x21E19E0C9BAB2400000 DUP1 PUSH2 0xB9E DUP12 DUP9 DUP12 PUSH2 0x1FCB JUMP JUMPDEST CALLDATALOAD GT PUSH2 0xBC4 JUMPI POP PUSH2 0xBBD PUSH1 0x1 SWAP2 PUSH2 0xBB6 DUP12 DUP9 DUP12 PUSH2 0x1FCB JUMP JUMPDEST CALLDATALOAD SWAP1 PUSH2 0x1F01 JUMP JUMPDEST SWAP9 ADD PUSH2 0xA4F JUMP JUMPDEST DUP4 PUSH1 0x44 SWAP2 DUP5 DUP10 PUSH2 0xBD5 DUP15 DUP12 DUP15 PUSH2 0x1FCB JUMP JUMPDEST CALLDATALOAD SWAP1 MLOAD SWAP4 PUSH4 0x3A6328B7 PUSH1 0xE1 SHL DUP6 MSTORE DUP5 ADD MSTORE DUP3 ADD MSTORE REVERT JUMPDEST DUP6 MLOAD PUSH4 0x1F2A2005 PUSH1 0xE0 SHL DUP2 MSTORE DUP4 SWAP1 REVERT JUMPDEST DUP6 MLOAD PUSH4 0xD92E233D PUSH1 0xE0 SHL DUP2 MSTORE DUP4 SWAP1 REVERT JUMPDEST DUP4 MLOAD PUSH4 0x1F2A2005 PUSH1 0xE0 SHL DUP2 MSTORE REVERT JUMPDEST PUSH1 0x64 DUP8 PUSH1 0x44 SWAP4 DUP7 MLOAD SWAP4 PUSH4 0xBB1CB70B PUSH1 0xE0 SHL DUP6 MSTORE DUP5 ADD MSTORE DUP3 ADD MSTORE REVERT JUMPDEST DUP4 MLOAD PUSH4 0x512509D3 PUSH1 0xE1 SHL DUP2 MSTORE REVERT JUMPDEST DUP5 DUP1 REVERT JUMPDEST POP POP CALLVALUE PUSH2 0x1F8 JUMPI DUP2 PUSH1 0x3 NOT CALLDATASIZE ADD SLT PUSH2 0x1F8 JUMPI PUSH1 0x20 SWAP1 PUSH1 0xFF PUSH1 0x5 SLOAD AND SWAP1 MLOAD SWAP1 ISZERO ISZERO DUP2 MSTORE RETURN JUMPDEST SWAP1 POP CALLVALUE PUSH2 0x2BE JUMPI DUP2 PUSH1 0x3 NOT CALLDATASIZE ADD SLT PUSH2 0x2BE JUMPI PUSH2 0xC84 PUSH2 0x13B5 JUMP JUMPDEST SWAP2 PUSH1 0x24 CALLDATALOAD SWAP3 PUSH2 0xC91 PUSH2 0x1417 JUMP JUMPDEST PUSH2 0xC99 PUSH2 0x1FA8 JUMP JUMPDEST PUSH1 0x1 PUSH1 0x1 PUSH1 0xA0 SHL SUB DUP2 AND SWAP3 DUP4 ISZERO PUSH2 0xD9E JUMPI DUP5 ISZERO PUSH2 0xD90 JUMPI PUSH10 0x21E19E0C9BAB2400000 DUP1 DUP7 GT PUSH2 0xD73 JUMPI POP PUSH1 0x2 SLOAD PUSH11 0x52B7D2DCC80CD2E4000000 SWAP1 DUP2 PUSH2 0xCDE DUP9 DUP4 PUSH2 0x1F01 JUMP JUMPDEST GT PUSH2 0xD37 JUMPI POP POP POP SWAP1 PUSH2 0xD21 DUP5 PUSH32 0x68885ACC0D4D52967F8C4265578AD97D47A93661CFBF91B06D9AD0CB625A31F0 SWAP4 PUSH2 0xD19 DUP3 PUSH1 0xC SLOAD PUSH2 0x1F01 JUMP JUMPDEST PUSH1 0xC SSTORE PUSH2 0x1F24 JUMP JUMPDEST DUP1 MLOAD SWAP4 DUP5 MSTORE TIMESTAMP PUSH1 0x20 DUP6 ADD MSTORE CALLER SWAP4 LOG3 PUSH1 0x1 PUSH1 0xA SSTORE DUP1 RETURN JUMPDEST DUP8 SWAP4 POP DUP5 DUP8 SWAP2 DUP4 SUB SWAP3 DUP4 GT PUSH2 0xD60 JUMPI MLOAD PUSH4 0xADC3CEE5 PUSH1 0xE0 SHL DUP2 MSTORE SWAP3 DUP4 ADD MSTORE PUSH1 0x24 DUP3 ADD MSTORE PUSH1 0x44 SWAP2 POP REVERT JUMPDEST PUSH4 0x4E487B71 PUSH1 0xE0 SHL DUP6 MSTORE PUSH1 0x11 DUP5 MSTORE PUSH1 0x24 DUP6 REVERT JUMPDEST DUP4 MLOAD PUSH4 0x3A6328B7 PUSH1 0xE1 SHL DUP2 MSTORE SWAP2 DUP3 ADD DUP7 SWAP1 MSTORE PUSH1 0x24 DUP3 ADD MSTORE PUSH1 0x44 SWAP2 POP REVERT JUMPDEST DUP3 MLOAD PUSH4 0x1F2A2005 PUSH1 0xE0 SHL DUP2 MSTORE REVERT JUMPDEST DUP3 MLOAD PUSH4 0xD92E233D PUSH1 0xE0 SHL DUP2 MSTORE REVERT JUMPDEST DUP4 SWAP1 CALLVALUE PUSH2 0x1F8 JUMPI PUSH1 0x20 CALLDATASIZE PUSH1 0x3 NOT ADD SLT PUSH2 0x1F8 JUMPI PUSH2 0x407 SWAP1 CALLDATALOAD CALLER PUSH2 0x1A64 JUMP JUMPDEST SWAP2 SWAP1 POP CALLVALUE PUSH2 0x2BE JUMPI DUP1 PUSH1 0x3 NOT CALLDATASIZE ADD SLT PUSH2 0x2BE JUMPI PUSH2 0xDE5 PUSH2 0x13B5 JUMP JUMPDEST SWAP1 PUSH1 0x24 SWAP2 DUP3 CALLDATALOAD SWAP4 PUSH2 0xDF4 PUSH2 0x14ED JUMP JUMPDEST PUSH2 0xDFC PUSH2 0x1FA8 JUMP JUMPDEST PUSH2 0xE04 PUSH2 0x1F8A JUMP JUMPDEST PUSH1 0x1 PUSH1 0x1 PUSH1 0xA0 SHL SUB DUP3 AND SWAP4 DUP5 ISZERO PUSH2 0xF4E JUMPI DUP6 ISZERO PUSH2 0xF3F JUMPI PUSH10 0x21E19E0C9BAB2400000 DUP1 DUP8 GT PUSH2 0xF24 JUMPI POP PUSH1 0x2 SLOAD PUSH11 0x52B7D2DCC80CD2E4000000 SWAP1 DUP2 PUSH2 0xE49 DUP10 DUP4 PUSH2 0x1F01 JUMP JUMPDEST GT PUSH2 0xEFD JUMPI POP POP SWAP1 DUP6 SWAP3 SWAP2 CALLER EXTCODESIZE ISZERO PUSH2 0xE91 JUMPI JUMPDEST POP POP DUP2 PUSH2 0xD21 SWAP2 PUSH2 0xD19 PUSH32 0x68885ACC0D4D52967F8C4265578AD97D47A93661CFBF91B06D9AD0CB625A31F0 SWAP6 SWAP5 PUSH1 0xC SLOAD PUSH2 0x1F01 JUMP JUMPDEST SWAP1 SWAP2 SWAP3 POP DUP5 DUP8 MSTORE PUSH1 0xB PUSH1 0x20 MSTORE DUP4 DUP8 KECCAK256 SLOAD SWAP1 PUSH2 0xE10 DUP3 ADD DUP1 SWAP3 GT PUSH2 0xEEC JUMPI DUP2 TIMESTAMP LT PUSH2 0xED1 JUMPI POP POP POP DUP3 DUP6 MSTORE PUSH1 0xB PUSH1 0x20 MSTORE DUP2 DUP6 KECCAK256 TIMESTAMP SWAP1 SSTORE DUP4 SWAP1 DUP2 PUSH2 0xD21 PUSH2 0xE5C JUMP JUMPDEST DUP5 MLOAD PUSH4 0x7F39D441 PUSH1 0xE0 SHL DUP2 MSTORE SWAP3 DUP4 ADD DUP7 SWAP1 MSTORE DUP3 ADD MSTORE PUSH1 0x44 SWAP2 POP REVERT JUMPDEST PUSH4 0x4E487B71 PUSH1 0xE0 SHL DUP9 MSTORE PUSH1 0x11 DUP4 MSTORE DUP8 REVERT JUMPDEST SWAP2 DUP8 DUP7 DUP11 SWAP6 SWAP5 DUP5 SUB SWAP4 DUP5 GT PUSH2 0xB47 JUMPI MLOAD PUSH4 0xADC3CEE5 PUSH1 0xE0 SHL DUP2 MSTORE SWAP4 DUP5 ADD MSTORE DUP3 ADD MSTORE PUSH1 0x44 SWAP2 POP REVERT JUMPDEST DUP5 MLOAD PUSH4 0x3A6328B7 PUSH1 0xE1 SHL DUP2 MSTORE SWAP3 DUP4 ADD DUP8 SWAP1 MSTORE SWAP1 DUP3 ADD MSTORE PUSH1 0x44 SWAP1 REVERT JUMPDEST POP DUP3 MLOAD PUSH4 0x1F2A2005 PUSH1 0xE0 SHL DUP2 MSTORE REVERT JUMPDEST POP DUP3 MLOAD PUSH4 0xD92E233D PUSH1 0xE0 SHL DUP2 MSTORE REVERT JUMPDEST SWAP1 POP CALLVALUE PUSH2 0x2BE JUMPI DUP3 PUSH1 0x3 NOT CALLDATASIZE ADD SLT PUSH2 0x2BE JUMPI PUSH2 0xF77 PUSH2 0x1491 JUMP JUMPDEST PUSH1 0x5 SLOAD SWAP1 PUSH1 0xFF DUP3 AND ISZERO PUSH2 0xFE2 JUMPI POP PUSH1 0xFF NOT AND PUSH1 0x5 SSTORE PUSH32 0x5DB9EE0A495BF2E6FF9C91A7834C1BA4FDD244A5E8AA4E537BD38AEAE4B073AA PUSH1 0x20 DUP3 MLOAD CALLER DUP2 MSTORE LOG1 MLOAD TIMESTAMP DUP2 MSTORE PUSH32 0x107553D8191D85B405879CF752997865EDD48D94E20BDA4DD27223C94B31A7CC PUSH1 0x20 CALLER SWAP3 LOG2 DUP1 RETURN JUMPDEST DUP3 MLOAD PUSH4 0x8DFC202B PUSH1 0xE0 SHL DUP2 MSTORE REVERT JUMPDEST DUP4 DUP4 CALLVALUE PUSH2 0x1F8 JUMPI DUP1 PUSH1 0x3 NOT CALLDATASIZE ADD SLT PUSH2 0x1F8 JUMPI PUSH2 0x100A PUSH2 0x13D0 JUMP JUMPDEST SWAP1 CALLER PUSH1 0x1 PUSH1 0x1 PUSH1 0xA0 SHL SUB DUP4 AND SUB PUSH2 0x1027 JUMPI POP PUSH2 0x2BA SWAP2 SWAP3 CALLDATALOAD PUSH2 0x1713 JUMP JUMPDEST MLOAD PUSH4 0x334BD919 PUSH1 0xE1 SHL DUP2 MSTORE DUP4 SWAP1 REVERT JUMPDEST POP POP CALLVALUE PUSH2 0x1F8 JUMPI DUP2 PUSH1 0x3 NOT CALLDATASIZE ADD SLT PUSH2 0x1F8 JUMPI PUSH1 0x20 SWAP1 PUSH2 0x1053 PUSH2 0x1C20 JUMP JUMPDEST SWAP1 MLOAD SWAP1 DUP2 MSTORE RETURN JUMPDEST DUP4 DUP4 CALLVALUE PUSH2 0x1F8 JUMPI DUP2 PUSH1 0x3 NOT CALLDATASIZE ADD SLT PUSH2 0x1F8 JUMPI PUSH1 0x2 SLOAD SWAP2 PUSH11 0x52B7D2DCC80CD2E4000000 SWAP3 DUP4 SUB SWAP3 DUP4 GT PUSH2 0x1090 JUMPI PUSH1 0x20 DUP4 DUP4 MLOAD SWAP1 DUP2 MSTORE RETURN JUMPDEST PUSH4 0x4E487B71 PUSH1 0xE0 SHL DUP2 MSTORE PUSH1 0x11 DUP5 MSTORE PUSH1 0x24 SWAP1 REVERT JUMPDEST POP POP CALLVALUE PUSH2 0x1F8 JUMPI DUP2 PUSH1 0x3 NOT CALLDATASIZE ADD SLT PUSH2 0x1F8 JUMPI PUSH1 0x20 SWAP1 MLOAD PUSH11 0x52B7D2DCC80CD2E4000000 DUP2 MSTORE RETURN JUMPDEST POP POP CALLVALUE PUSH2 0x1F8 JUMPI DUP2 PUSH1 0x3 NOT CALLDATASIZE ADD SLT PUSH2 0x1F8 JUMPI PUSH1 0x20 SWAP1 MLOAD PUSH1 0x12 DUP2 MSTORE RETURN JUMPDEST SWAP2 SWAP1 POP CALLVALUE PUSH2 0x2BE JUMPI PUSH1 0x20 CALLDATASIZE PUSH1 0x3 NOT ADD SLT PUSH2 0x2BE JUMPI PUSH2 0x1101 PUSH2 0x13B5 JUMP JUMPDEST SWAP1 PUSH2 0x110A PUSH2 0x1417 JUMP JUMPDEST PUSH1 0x1 PUSH1 0x1 PUSH1 0xA0 SHL SUB DUP3 AND SWAP3 DUP4 ISZERO PUSH2 0x54D JUMPI POP SWAP1 PUSH2 0x1145 PUSH1 0x1 PUSH2 0x114A SWAP4 PUSH1 0x0 DUP1 MLOAD PUSH1 0x20 PUSH2 0x2006 DUP4 CODECOPY DUP2 MLOAD SWAP2 MSTORE DUP8 MSTORE PUSH1 0x9 PUSH1 0x20 MSTORE DUP7 KECCAK256 ADD SLOAD PUSH2 0x1537 JUMP JUMPDEST PUSH2 0x1679 JUMP JUMPDEST POP CALLER SWAP1 PUSH32 0x4B5EF9A786CF64A7D82EBCF2D5132667EDC9FAEF4AC36260D9A9E52C526B6232 DUP4 DUP1 LOG3 DUP1 RETURN JUMPDEST SWAP2 SWAP1 POP CALLVALUE PUSH2 0x2BE JUMPI DUP1 PUSH1 0x3 NOT CALLDATASIZE ADD SLT PUSH2 0x2BE JUMPI PUSH2 0x2BA SWAP2 CALLDATALOAD PUSH2 0x1199 PUSH1 0x1 PUSH2 0x2A3 PUSH2 0x13D0 JUMP JUMPDEST PUSH2 0x15FE JUMP JUMPDEST SWAP1 POP CALLVALUE PUSH2 0x2BE JUMPI PUSH1 0x20 CALLDATASIZE PUSH1 0x3 NOT ADD SLT PUSH2 0x2BE JUMPI DUP2 PUSH1 0x20 SWAP4 PUSH1 0x1 SWAP3 CALLDATALOAD DUP2 MSTORE PUSH1 0x9 DUP6 MSTORE KECCAK256 ADD SLOAD SWAP1 MLOAD SWAP1 DUP2 MSTORE RETURN JUMPDEST POP POP CALLVALUE PUSH2 0x1F8 JUMPI PUSH1 0x60 CALLDATASIZE PUSH1 0x3 NOT ADD SLT PUSH2 0x1F8 JUMPI PUSH1 0x20 SWAP1 PUSH2 0x47D PUSH2 0x11EA PUSH2 0x13B5 JUMP JUMPDEST PUSH2 0x11F2 PUSH2 0x13D0 JUMP JUMPDEST PUSH1 0x44 CALLDATALOAD SWAP2 PUSH2 0x1201 DUP4 CALLER DUP4 PUSH2 0x1991 JUMP JUMPDEST PUSH2 0x1818 JUMP JUMPDEST POP POP CALLVALUE PUSH2 0x1F8 JUMPI DUP2 PUSH1 0x3 NOT CALLDATASIZE ADD SLT PUSH2 0x1F8 JUMPI PUSH1 0x20 SWAP1 PUSH1 0x2 SLOAD SWAP1 MLOAD SWAP1 DUP2 MSTORE RETURN JUMPDEST POP POP CALLVALUE PUSH2 0x1F8 JUMPI DUP1 PUSH1 0x3 NOT CALLDATASIZE ADD SLT PUSH2 0x1F8 JUMPI PUSH1 0x20 SWAP1 PUSH2 0x47D PUSH2 0x1245 PUSH2 0x13B5 JUMP JUMPDEST PUSH1 0x24 CALLDATALOAD SWAP1 CALLER PUSH2 0x18FE JUMP JUMPDEST POP POP CALLVALUE PUSH2 0x1F8 JUMPI DUP2 PUSH1 0x3 NOT CALLDATASIZE ADD SLT PUSH2 0x1F8 JUMPI DUP1 MLOAD SWAP1 DUP3 PUSH1 0x3 SLOAD PUSH2 0x1271 DUP2 PUSH2 0x178A JUMP JUMPDEST DUP1 DUP6 MSTORE SWAP2 PUSH1 0x1 SWAP2 DUP1 DUP4 AND SWAP1 DUP2 ISZERO PUSH2 0x12FA JUMPI POP PUSH1 0x1 EQ PUSH2 0x129D JUMPI JUMPDEST POP POP POP PUSH2 0x5A9 DUP3 PUSH2 0x5BB SWAP5 SUB DUP4 PUSH2 0x17F6 JUMP JUMPDEST SWAP5 POP PUSH1 0x3 DUP6 MSTORE PUSH32 0xC2575A0E9E593C00F959F8C92F12DB2869C3395A3B0502D05E2516446F71F85B JUMPDEST DUP3 DUP7 LT PUSH2 0x12E2 JUMPI POP POP POP PUSH2 0x5A9 DUP3 PUSH1 0x20 PUSH2 0x5BB SWAP6 DUP3 ADD ADD SWAP5 PUSH2 0x128B JUMP JUMPDEST DUP1 SLOAD PUSH1 0x20 DUP8 DUP8 ADD DUP2 ADD SWAP2 SWAP1 SWAP2 MSTORE SWAP1 SWAP6 ADD SWAP5 DUP2 ADD PUSH2 0x12C5 JUMP JUMPDEST PUSH2 0x5BB SWAP8 POP DUP7 SWAP4 POP PUSH1 0x20 SWAP3 POP PUSH2 0x5A9 SWAP5 SWAP2 POP PUSH1 0xFF NOT AND DUP3 DUP5 ADD MSTORE ISZERO ISZERO PUSH1 0x5 SHL DUP3 ADD ADD SWAP5 PUSH2 0x128B JUMP JUMPDEST DUP5 SWAP2 CALLVALUE PUSH2 0x2BE JUMPI PUSH1 0x20 CALLDATASIZE PUSH1 0x3 NOT ADD SLT PUSH2 0x2BE JUMPI CALLDATALOAD PUSH4 0xFFFFFFFF PUSH1 0xE0 SHL DUP2 AND DUP1 SWAP2 SUB PUSH2 0x2BE JUMPI PUSH1 0x20 SWAP3 POP PUSH4 0x7965DB0B PUSH1 0xE0 SHL DUP2 EQ SWAP1 DUP2 ISZERO PUSH2 0x1364 JUMPI JUMPDEST POP ISZERO ISZERO DUP2 MSTORE RETURN JUMPDEST PUSH4 0x1FFC9A7 PUSH1 0xE0 SHL EQ SWAP1 POP DUP4 PUSH2 0x135D JUMP JUMPDEST SWAP2 SWAP1 DUP3 MLOAD SWAP3 DUP4 DUP3 MSTORE PUSH1 0x0 JUMPDEST DUP5 DUP2 LT PUSH2 0x13A1 JUMPI POP POP DUP3 PUSH1 0x0 PUSH1 0x20 DUP1 SWAP5 SWAP6 DUP5 ADD ADD MSTORE PUSH1 0x1F DUP1 NOT SWAP2 ADD AND ADD ADD SWAP1 JUMP JUMPDEST PUSH1 0x20 DUP2 DUP4 ADD DUP2 ADD MLOAD DUP5 DUP4 ADD DUP3 ADD MSTORE ADD PUSH2 0x1380 JUMP JUMPDEST PUSH1 0x4 CALLDATALOAD SWAP1 PUSH1 0x1 PUSH1 0x1 PUSH1 0xA0 SHL SUB DUP3 AND DUP3 SUB PUSH2 0x13CB JUMPI JUMP JUMPDEST PUSH1 0x0 DUP1 REVERT JUMPDEST PUSH1 0x24 CALLDATALOAD SWAP1 PUSH1 0x1 PUSH1 0x1 PUSH1 0xA0 SHL SUB DUP3 AND DUP3 SUB PUSH2 0x13CB JUMPI JUMP JUMPDEST SWAP2 DUP2 PUSH1 0x1F DUP5 ADD SLT ISZERO PUSH2 0x13CB JUMPI DUP3 CALLDATALOAD SWAP2 PUSH8 0xFFFFFFFFFFFFFFFF DUP4 GT PUSH2 0x13CB JUMPI PUSH1 0x20 DUP1 DUP6 ADD SWAP5 DUP5 PUSH1 0x5 SHL ADD ADD GT PUSH2 0x13CB JUMPI JUMP JUMPDEST CALLER PUSH1 0x0 SWAP1 DUP2 MSTORE PUSH32 0x5E421A728E346CCAF4D82870EC53D59217A30D3483C6688054A2A67760F2138C PUSH1 0x20 MSTORE PUSH1 0x40 SWAP1 KECCAK256 SLOAD PUSH32 0xA49807205CE4D355092EF5A8A18F56E8913CF4A201FBE287825B095693C21775 SWAP1 PUSH1 0xFF AND ISZERO PUSH2 0x1473 JUMPI POP JUMP JUMPDEST PUSH1 0x44 SWAP1 PUSH1 0x40 MLOAD SWAP1 PUSH4 0xE2517D3F PUSH1 0xE0 SHL DUP3 MSTORE CALLER PUSH1 0x4 DUP4 ADD MSTORE PUSH1 0x24 DUP3 ADD MSTORE REVERT JUMPDEST CALLER PUSH1 0x0 SWAP1 DUP2 MSTORE PUSH32 0x84574A31E2F767388BFA57BC81FF2590DF95D3022C04C363CCA3E37EE9608631 PUSH1 0x20 MSTORE PUSH1 0x40 SWAP1 KECCAK256 SLOAD PUSH32 0x65D7A28E3265B37A6474929F336521B332C1681B933F6CB9F3376673440D862A SWAP1 PUSH1 0xFF AND ISZERO PUSH2 0x1473 JUMPI POP JUMP JUMPDEST CALLER PUSH1 0x0 SWAP1 DUP2 MSTORE PUSH32 0xD5D09B8F3165A736D25B1A14611612AC91830C1B82012B1C33B2DAC7C90A0649 PUSH1 0x20 MSTORE PUSH1 0x40 SWAP1 KECCAK256 SLOAD PUSH1 0x0 DUP1 MLOAD PUSH1 0x20 PUSH2 0x2006 DUP4 CODECOPY DUP2 MLOAD SWAP2 MSTORE SWAP1 PUSH1 0xFF AND ISZERO PUSH2 0x1473 JUMPI POP JUMP JUMPDEST DUP1 PUSH1 0x0 MSTORE PUSH1 0x9 PUSH1 0x20 MSTORE PUSH1 0x40 PUSH1 0x0 KECCAK256 CALLER PUSH1 0x0 MSTORE PUSH1 0x20 MSTORE PUSH1 0xFF PUSH1 0x40 PUSH1 0x0 KECCAK256 SLOAD AND ISZERO PUSH2 0x1473 JUMPI POP JUMP JUMPDEST PUSH1 0x1 PUSH1 0x1 PUSH1 0xA0 SHL SUB AND PUSH1 0x0 DUP2 DUP2 MSTORE PUSH32 0xD5D09B8F3165A736D25B1A14611612AC91830C1B82012B1C33B2DAC7C90A0649 PUSH1 0x20 MSTORE PUSH1 0x40 DUP2 KECCAK256 SLOAD SWAP1 SWAP2 SWAP1 PUSH1 0x0 DUP1 MLOAD PUSH1 0x20 PUSH2 0x2006 DUP4 CODECOPY DUP2 MLOAD SWAP2 MSTORE SWAP1 PUSH1 0xFF AND PUSH2 0x15F9 JUMPI DUP1 DUP4 MSTORE PUSH1 0x9 PUSH1 0x20 MSTORE PUSH1 0x40 DUP4 KECCAK256 DUP3 DUP5 MSTORE PUSH1 0x20 MSTORE PUSH1 0x40 DUP4 KECCAK256 PUSH1 0x1 PUSH1 0xFF NOT DUP3 SLOAD AND OR SWAP1 SSTORE PUSH32 0x2F8788117E7EFF1D82E926EC794901D17C78024A50270940304540A733656F0D CALLER SWAP4 DUP1 LOG4 PUSH1 0x1 SWAP1 JUMP JUMPDEST POP POP SWAP1 JUMP JUMPDEST SWAP1 PUSH1 0x0 SWAP2 DUP1 DUP4 MSTORE PUSH1 0x9 PUSH1 0x20 MSTORE PUSH1 0x40 DUP4 KECCAK256 SWAP2 PUSH1 0x1 DUP1 PUSH1 0xA0 SHL SUB AND SWAP2 DUP3 DUP5 MSTORE PUSH1 0x20 MSTORE PUSH1 0xFF PUSH1 0x40 DUP5 KECCAK256 SLOAD AND ISZERO PUSH1 0x0 EQ PUSH2 0x15F9 JUMPI DUP1 DUP4 MSTORE PUSH1 0x9 PUSH1 0x20 MSTORE PUSH1 0x40 DUP4 KECCAK256 DUP3 DUP5 MSTORE PUSH1 0x20 MSTORE PUSH1 0x40 DUP4 KECCAK256 PUSH1 0x1 PUSH1 0xFF NOT DUP3 SLOAD AND OR SWAP1 SSTORE PUSH32 0x2F8788117E7EFF1D82E926EC794901D17C78024A50270940304540A733656F0D CALLER SWAP4 DUP1 LOG4 PUSH1 0x1 SWAP1 JUMP JUMPDEST PUSH1 0x1 PUSH1 0x1 PUSH1 0xA0 SHL SUB AND PUSH1 0x0 DUP2 DUP2 MSTORE PUSH32 0xD5D09B8F3165A736D25B1A14611612AC91830C1B82012B1C33B2DAC7C90A0649 PUSH1 0x20 MSTORE PUSH1 0x40 DUP2 KECCAK256 SLOAD SWAP1 SWAP2 SWAP1 PUSH1 0x0 DUP1 MLOAD PUSH1 0x20 PUSH2 0x2006 DUP4 CODECOPY DUP2 MLOAD SWAP2 MSTORE SWAP1 PUSH1 0xFF AND ISZERO PUSH2 0x15F9 JUMPI DUP1 DUP4 MSTORE PUSH1 0x9 PUSH1 0x20 MSTORE PUSH1 0x40 DUP4 KECCAK256 DUP3 DUP5 MSTORE PUSH1 0x20 MSTORE PUSH1 0x40 DUP4 KECCAK256 PUSH1 0xFF NOT DUP2 SLOAD AND SWAP1 SSTORE PUSH32 0xF6391F5C32D9C69D2A47EA670B442974B53935D1EDC7FD64EB21E047A839171B CALLER SWAP4 DUP1 LOG4 PUSH1 0x1 SWAP1 JUMP JUMPDEST SWAP1 PUSH1 0x0 SWAP2 DUP1 DUP4 MSTORE PUSH1 0x9 PUSH1 0x20 MSTORE PUSH1 0x40 DUP4 KECCAK256 SWAP2 PUSH1 0x1 DUP1 PUSH1 0xA0 SHL SUB AND SWAP2 DUP3 DUP5 MSTORE PUSH1 0x20 MSTORE PUSH1 0xFF PUSH1 0x40 DUP5 KECCAK256 SLOAD AND PUSH1 0x0 EQ PUSH2 0x15F9 JUMPI DUP1 DUP4 MSTORE PUSH1 0x9 PUSH1 0x20 MSTORE PUSH1 0x40 DUP4 KECCAK256 DUP3 DUP5 MSTORE PUSH1 0x20 MSTORE PUSH1 0x40 DUP4 KECCAK256 PUSH1 0xFF NOT DUP2 SLOAD AND SWAP1 SSTORE PUSH32 0xF6391F5C32D9C69D2A47EA670B442974B53935D1EDC7FD64EB21E047A839171B CALLER SWAP4 DUP1 LOG4 PUSH1 0x1 SWAP1 JUMP JUMPDEST SWAP1 PUSH1 0x1 DUP3 DUP2 SHR SWAP3 AND DUP1 ISZERO PUSH2 0x17BA JUMPI JUMPDEST PUSH1 0x20 DUP4 LT EQ PUSH2 0x17A4 JUMPI JUMP JUMPDEST PUSH4 0x4E487B71 PUSH1 0xE0 SHL PUSH1 0x0 MSTORE PUSH1 0x22 PUSH1 0x4 MSTORE PUSH1 0x24 PUSH1 0x0 REVERT JUMPDEST SWAP2 PUSH1 0x7F AND SWAP2 PUSH2 0x1799 JUMP JUMPDEST PUSH1 0x40 DUP2 ADD SWAP1 DUP2 LT PUSH8 0xFFFFFFFFFFFFFFFF DUP3 GT OR PUSH2 0x17E0 JUMPI PUSH1 0x40 MSTORE JUMP JUMPDEST PUSH4 0x4E487B71 PUSH1 0xE0 SHL PUSH1 0x0 MSTORE PUSH1 0x41 PUSH1 0x4 MSTORE PUSH1 0x24 PUSH1 0x0 REVERT JUMPDEST SWAP1 PUSH1 0x1F DUP1 NOT SWAP2 ADD AND DUP2 ADD SWAP1 DUP2 LT PUSH8 0xFFFFFFFFFFFFFFFF DUP3 GT OR PUSH2 0x17E0 JUMPI PUSH1 0x40 MSTORE JUMP JUMPDEST SWAP2 PUSH1 0x1 PUSH1 0x1 PUSH1 0xA0 SHL SUB DUP1 DUP5 AND SWAP3 DUP4 ISZERO PUSH2 0x18E5 JUMPI AND SWAP3 DUP4 ISZERO PUSH2 0x18CC JUMPI PUSH2 0x183B PUSH2 0x1F8A JUMP JUMPDEST PUSH1 0x0 SWAP1 DUP4 DUP3 MSTORE DUP2 PUSH1 0x20 MSTORE PUSH1 0x40 DUP3 KECCAK256 SLOAD SWAP1 DUP4 DUP3 LT PUSH2 0x189A JUMPI POP SWAP2 PUSH1 0x40 DUP3 DUP3 PUSH32 0xDDF252AD1BE2C89B69C2B068FC378DAA952BA7F163C4A11628F55A4DF523B3EF SWAP6 DUP8 PUSH1 0x20 SWAP7 MSTORE DUP3 DUP7 MSTORE SUB DUP3 DUP3 KECCAK256 SSTORE DUP7 DUP2 MSTORE KECCAK256 DUP2 DUP2 SLOAD ADD SWAP1 SSTORE PUSH1 0x40 MLOAD SWAP1 DUP2 MSTORE LOG3 JUMP JUMPDEST PUSH1 0x40 MLOAD PUSH4 0x391434E3 PUSH1 0xE2 SHL DUP2 MSTORE PUSH1 0x1 PUSH1 0x1 PUSH1 0xA0 SHL SUB SWAP2 SWAP1 SWAP2 AND PUSH1 0x4 DUP3 ADD MSTORE PUSH1 0x24 DUP2 ADD SWAP2 SWAP1 SWAP2 MSTORE PUSH1 0x44 DUP2 ADD DUP4 SWAP1 MSTORE PUSH1 0x64 SWAP1 REVERT JUMPDEST PUSH1 0x40 MLOAD PUSH4 0xEC442F05 PUSH1 0xE0 SHL DUP2 MSTORE PUSH1 0x0 PUSH1 0x4 DUP3 ADD MSTORE PUSH1 0x24 SWAP1 REVERT JUMPDEST PUSH1 0x40 MLOAD PUSH4 0x4B637E8F PUSH1 0xE1 SHL DUP2 MSTORE PUSH1 0x0 PUSH1 0x4 DUP3 ADD MSTORE PUSH1 0x24 SWAP1 REVERT JUMPDEST PUSH1 0x1 PUSH1 0x1 PUSH1 0xA0 SHL SUB SWAP1 DUP2 AND SWAP2 DUP3 ISZERO PUSH2 0x1978 JUMPI AND SWAP2 DUP3 ISZERO PUSH2 0x195F JUMPI PUSH1 0x20 PUSH32 0x8C5BE1E5EBEC7D5BD14F71427D1E84F3DD0314C0F7B2291E5B200AC8C7C3B925 SWAP2 DUP4 PUSH1 0x0 MSTORE PUSH1 0x1 DUP3 MSTORE PUSH1 0x40 PUSH1 0x0 KECCAK256 DUP6 PUSH1 0x0 MSTORE DUP3 MSTORE DUP1 PUSH1 0x40 PUSH1 0x0 KECCAK256 SSTORE PUSH1 0x40 MLOAD SWAP1 DUP2 MSTORE LOG3 JUMP JUMPDEST PUSH1 0x40 MLOAD PUSH4 0x4A1406B1 PUSH1 0xE1 SHL DUP2 MSTORE PUSH1 0x0 PUSH1 0x4 DUP3 ADD MSTORE PUSH1 0x24 SWAP1 REVERT JUMPDEST PUSH1 0x40 MLOAD PUSH4 0xE602DF05 PUSH1 0xE0 SHL DUP2 MSTORE PUSH1 0x0 PUSH1 0x4 DUP3 ADD MSTORE PUSH1 0x24 SWAP1 REVERT JUMPDEST SWAP2 PUSH1 0x1 DUP1 PUSH1 0xA0 SHL SUB DUP1 SWAP4 AND SWAP2 PUSH1 0x0 SWAP4 DUP4 DUP6 MSTORE PUSH1 0x1 PUSH1 0x20 MSTORE PUSH1 0x40 SWAP4 DUP5 DUP7 KECCAK256 SWAP2 DUP4 AND SWAP2 DUP3 DUP8 MSTORE PUSH1 0x20 MSTORE DUP5 DUP7 KECCAK256 SLOAD SWAP3 PUSH1 0x0 NOT DUP5 LT PUSH2 0x19D0 JUMPI JUMPDEST POP POP POP POP POP POP POP JUMP JUMPDEST DUP5 DUP5 LT PUSH2 0x1A34 JUMPI POP DUP1 ISZERO PUSH2 0x1A1C JUMPI DUP2 ISZERO PUSH2 0x1A04 JUMPI DUP6 MSTORE PUSH1 0x1 PUSH1 0x20 MSTORE DUP4 DUP6 KECCAK256 SWAP1 DUP6 MSTORE PUSH1 0x20 MSTORE SUB SWAP2 KECCAK256 SSTORE CODESIZE DUP1 DUP1 DUP1 DUP1 DUP1 DUP1 PUSH2 0x19C7 JUMP JUMPDEST DUP5 MLOAD PUSH4 0x4A1406B1 PUSH1 0xE1 SHL DUP2 MSTORE PUSH1 0x4 DUP2 ADD DUP8 SWAP1 MSTORE PUSH1 0x24 SWAP1 REVERT JUMPDEST DUP5 MLOAD PUSH4 0xE602DF05 PUSH1 0xE0 SHL DUP2 MSTORE PUSH1 0x4 DUP2 ADD DUP8 SWAP1 MSTORE PUSH1 0x24 SWAP1 REVERT JUMPDEST DUP6 MLOAD PUSH4 0x7DC7A0D9 PUSH1 0xE1 SHL DUP2 MSTORE PUSH1 0x1 PUSH1 0x1 PUSH1 0xA0 SHL SUB SWAP2 SWAP1 SWAP2 AND PUSH1 0x4 DUP3 ADD MSTORE PUSH1 0x24 DUP2 ADD DUP5 SWAP1 MSTORE PUSH1 0x44 DUP2 ADD DUP6 SWAP1 MSTORE PUSH1 0x64 SWAP1 REVERT JUMPDEST SWAP1 PUSH1 0x1 PUSH1 0x1 PUSH1 0xA0 SHL SUB DUP3 AND SWAP1 DUP2 ISZERO PUSH2 0x18E5 JUMPI PUSH2 0x1A7E PUSH2 0x1F8A JUMP JUMPDEST PUSH1 0x0 SWAP3 DUP3 DUP5 MSTORE DUP4 PUSH1 0x20 MSTORE PUSH1 0x40 DUP5 KECCAK256 SLOAD SWAP1 DUP3 DUP3 LT PUSH2 0x1AD9 JUMPI POP DUP2 PUSH32 0xDDF252AD1BE2C89B69C2B068FC378DAA952BA7F163C4A11628F55A4DF523B3EF SWAP3 PUSH1 0x20 SWAP3 DUP6 DUP8 MSTORE DUP7 DUP5 MSTORE SUB PUSH1 0x40 DUP7 KECCAK256 SSTORE DUP1 PUSH1 0x2 SLOAD SUB PUSH1 0x2 SSTORE PUSH1 0x40 MLOAD SWAP1 DUP2 MSTORE LOG3 JUMP JUMPDEST PUSH1 0x40 MLOAD PUSH4 0x391434E3 PUSH1 0xE2 SHL DUP2 MSTORE PUSH1 0x1 PUSH1 0x1 PUSH1 0xA0 SHL SUB SWAP2 SWAP1 SWAP2 AND PUSH1 0x4 DUP3 ADD MSTORE PUSH1 0x24 DUP2 ADD SWAP2 SWAP1 SWAP2 MSTORE PUSH1 0x44 DUP2 ADD DUP3 SWAP1 MSTORE PUSH1 0x64 SWAP1 REVERT JUMPDEST SWAP2 SWAP1 PUSH32 0x7FFFFFFFFFFFFFFFFFFFFFFFFFFFFFFF5D576E7357A4501DDFE92F46681B20A0 DUP5 GT PUSH2 0x1B8F JUMPI SWAP3 PUSH1 0x20 SWAP3 SWAP2 PUSH1 0xFF PUSH1 0x80 SWAP6 PUSH1 0x40 MLOAD SWAP5 DUP6 MSTORE AND DUP5 DUP5 ADD MSTORE PUSH1 0x40 DUP4 ADD MSTORE PUSH1 0x60 DUP3 ADD MSTORE PUSH1 0x0 SWAP3 DUP4 SWAP2 DUP3 DUP1 MSTORE PUSH1 0x1 GAS STATICCALL ISZERO PUSH2 0x1B83 JUMPI DUP1 MLOAD PUSH1 0x1 PUSH1 0x1 PUSH1 0xA0 SHL SUB DUP2 AND ISZERO PUSH2 0x1B7A JUMPI SWAP2 DUP2 SWAP1 JUMP JUMPDEST POP DUP1 SWAP2 PUSH1 0x1 SWAP2 SWAP1 JUMP JUMPDEST PUSH1 0x40 MLOAD SWAP1 RETURNDATASIZE SWAP1 DUP3 RETURNDATACOPY RETURNDATASIZE SWAP1 REVERT JUMPDEST POP POP POP PUSH1 0x0 SWAP2 PUSH1 0x3 SWAP2 SWAP1 JUMP JUMPDEST PUSH1 0x4 DUP2 LT ISZERO PUSH2 0x1C0A JUMPI DUP1 PUSH2 0x1BAD JUMPI POP POP JUMP JUMPDEST PUSH1 0x1 DUP2 SUB PUSH2 0x1BC7 JUMPI PUSH1 0x40 MLOAD PUSH4 0xF645EEDF PUSH1 0xE0 SHL DUP2 MSTORE PUSH1 0x4 SWAP1 REVERT JUMPDEST PUSH1 0x2 DUP2 SUB PUSH2 0x1BE8 JUMPI PUSH1 0x40 MLOAD PUSH4 0xFCE698F7 PUSH1 0xE0 SHL DUP2 MSTORE PUSH1 0x4 DUP2 ADD DUP4 SWAP1 MSTORE PUSH1 0x24 SWAP1 REVERT JUMPDEST PUSH1 0x3 EQ PUSH2 0x1BF2 JUMPI POP JUMP JUMPDEST PUSH1 0x24 SWAP1 PUSH1 0x40 MLOAD SWAP1 PUSH4 0x35E2F383 PUSH1 0xE2 SHL DUP3 MSTORE PUSH1 0x4 DUP3 ADD MSTORE REVERT JUMPDEST PUSH4 0x4E487B71 PUSH1 0xE0 SHL PUSH1 0x0 MSTORE PUSH1 0x21 PUSH1 0x4 MSTORE PUSH1 0x24 PUSH1 0x0 REVERT JUMPDEST ADDRESS PUSH32 0x0 PUSH1 0x1 PUSH1 0x1 PUSH1 0xA0 SHL SUB AND EQ DUP1 PUSH2 0x1D22 JUMPI JUMPDEST ISZERO PUSH2 0x1C7B JUMPI PUSH32 0x0 SWAP1 JUMP JUMPDEST PUSH1 0x40 MLOAD PUSH1 0x20 DUP2 ADD SWAP1 PUSH32 0x8B73C3C69BB8FE3D512ECC4CF759CC79239F7B179B0FFACAA9A75D522B39400F DUP3 MSTORE PUSH32 0x0 PUSH1 0x40 DUP3 ADD MSTORE PUSH32 0x0 PUSH1 0x60 DUP3 ADD MSTORE CHAINID PUSH1 0x80 DUP3 ADD MSTORE ADDRESS PUSH1 0xA0 DUP3 ADD MSTORE PUSH1 0xA0 DUP2 MSTORE PUSH1 0xC0 DUP2 ADD DUP2 DUP2 LT PUSH8 0xFFFFFFFFFFFFFFFF DUP3 GT OR PUSH2 0x17E0 JUMPI PUSH1 0x40 MSTORE MLOAD SWAP1 KECCAK256 SWAP1 JUMP JUMPDEST POP PUSH32 0x0 CHAINID EQ PUSH2 0x1C52 JUMP JUMPDEST PUSH1 0xFF DUP2 EQ PUSH2 0x1D89 JUMPI PUSH1 0xFF DUP2 AND SWAP1 PUSH1 0x1F DUP3 GT PUSH2 0x1D77 JUMPI PUSH1 0x40 MLOAD SWAP2 PUSH2 0x1D6D DUP4 PUSH2 0x17C4 JUMP JUMPDEST DUP3 MSTORE PUSH1 0x20 DUP3 ADD MSTORE SWAP1 JUMP JUMPDEST PUSH1 0x40 MLOAD PUSH4 0x2CD44AC3 PUSH1 0xE2 SHL DUP2 MSTORE PUSH1 0x4 SWAP1 REVERT JUMPDEST POP PUSH1 0x40 MLOAD PUSH1 0x6 SLOAD DUP2 PUSH1 0x0 PUSH2 0x1D9C DUP4 PUSH2 0x178A JUMP JUMPDEST DUP1 DUP4 MSTORE SWAP3 PUSH1 0x1 SWAP1 DUP2 DUP2 AND SWAP1 DUP2 ISZERO PUSH2 0x1E25 JUMPI POP PUSH1 0x1 EQ PUSH2 0x1DC6 JUMPI JUMPDEST POP PUSH2 0x1DC3 SWAP3 POP SUB DUP3 PUSH2 0x17F6 JUMP JUMPDEST SWAP1 JUMP JUMPDEST PUSH1 0x6 PUSH1 0x0 SWAP1 DUP2 MSTORE SWAP2 POP PUSH32 0xF652222313E28459528D920B65115C16C04F3EFC82AAEDC97BE59F3F377C0D3F JUMPDEST DUP5 DUP4 LT PUSH2 0x1E0A JUMPI POP PUSH2 0x1DC3 SWAP4 POP POP DUP2 ADD PUSH1 0x20 ADD CODESIZE PUSH2 0x1DB6 JUMP JUMPDEST DUP2 SWAP4 POP SWAP1 DUP2 PUSH1 0x20 SWAP3 SLOAD DUP4 DUP6 DUP10 ADD ADD MSTORE ADD SWAP2 ADD SWAP1 SWAP2 DUP5 SWAP3 PUSH2 0x1DF1 JUMP JUMPDEST SWAP1 POP PUSH1 0x20 SWAP3 POP PUSH2 0x1DC3 SWAP5 SWAP2 POP PUSH1 0xFF NOT AND DUP3 DUP5 ADD MSTORE ISZERO ISZERO PUSH1 0x5 SHL DUP3 ADD ADD CODESIZE PUSH2 0x1DB6 JUMP JUMPDEST PUSH1 0xFF DUP2 EQ PUSH2 0x1E69 JUMPI PUSH1 0xFF DUP2 AND SWAP1 PUSH1 0x1F DUP3 GT PUSH2 0x1D77 JUMPI PUSH1 0x40 MLOAD SWAP2 PUSH2 0x1D6D DUP4 PUSH2 0x17C4 JUMP JUMPDEST POP PUSH1 0x40 MLOAD PUSH1 0x7 SLOAD DUP2 PUSH1 0x0 PUSH2 0x1E7C DUP4 PUSH2 0x178A JUMP JUMPDEST DUP1 DUP4 MSTORE SWAP3 PUSH1 0x1 SWAP1 DUP2 DUP2 AND SWAP1 DUP2 ISZERO PUSH2 0x1E25 JUMPI POP PUSH1 0x1 EQ PUSH2 0x1EA2 JUMPI POP PUSH2 0x1DC3 SWAP3 POP SUB DUP3 PUSH2 0x17F6 JUMP JUMPDEST PUSH1 0x7 PUSH1 0x0 SWAP1 DUP2 MSTORE SWAP2 POP PUSH32 0xA66CC928B5EDB82AF9BD49922954155AB7B0942694BEA4CE44661D9A8736C688 JUMPDEST DUP5 DUP4 LT PUSH2 0x1EE6 JUMPI POP PUSH2 0x1DC3 SWAP4 POP POP DUP2 ADD PUSH1 0x20 ADD CODESIZE PUSH2 0x1DB6 JUMP JUMPDEST DUP2 SWAP4 POP SWAP1 DUP2 PUSH1 0x20 SWAP3 SLOAD DUP4 DUP6 DUP10 ADD ADD MSTORE ADD SWAP2 ADD SWAP1 SWAP2 DUP5 SWAP3 PUSH2 0x1ECD JUMP JUMPDEST SWAP2 SWAP1 DUP3 ADD DUP1 SWAP3 GT PUSH2 0x1F0E JUMPI JUMP JUMPDEST PUSH4 0x4E487B71 PUSH1 0xE0 SHL PUSH1 0x0 MSTORE PUSH1 0x11 PUSH1 0x4 MSTORE PUSH1 0x24 PUSH1 0x0 REVERT JUMPDEST PUSH1 0x1 PUSH1 0x1 PUSH1 0xA0 SHL SUB AND SWAP1 DUP2 ISZERO PUSH2 0x18CC JUMPI PUSH32 0xDDF252AD1BE2C89B69C2B068FC378DAA952BA7F163C4A11628F55A4DF523B3EF PUSH1 0x20 PUSH1 0x0 SWAP3 PUSH2 0x1F62 PUSH2 0x1F8A JUMP JUMPDEST PUSH2 0x1F6E DUP2 PUSH1 0x2 SLOAD PUSH2 0x1F01 JUMP JUMPDEST PUSH1 0x2 SSTORE DUP5 DUP5 MSTORE DUP4 DUP3 MSTORE PUSH1 0x40 DUP5 KECCAK256 DUP2 DUP2 SLOAD ADD SWAP1 SSTORE PUSH1 0x40 MLOAD SWAP1 DUP2 MSTORE LOG3 JUMP JUMPDEST PUSH1 0xFF PUSH1 0x5 SLOAD AND PUSH2 0x1F96 JUMPI JUMP JUMPDEST PUSH1 0x40 MLOAD PUSH4 0xD93C0665 PUSH1 0xE0 SHL DUP2 MSTORE PUSH1 0x4 SWAP1 REVERT JUMPDEST PUSH1 0x2 PUSH1 0xA SLOAD EQ PUSH2 0x1FB9 JUMPI PUSH1 0x2 PUSH1 0xA SSTORE JUMP JUMPDEST PUSH1 0x40 MLOAD PUSH4 0x3EE5AEB5 PUSH1 0xE0 SHL DUP2 MSTORE PUSH1 0x4 SWAP1 REVERT JUMPDEST SWAP2 SWAP1 DUP2 LT ISZERO PUSH2 0x1FDB JUMPI PUSH1 0x5 SHL ADD SWAP1 JUMP JUMPDEST PUSH4 0x4E487B71 PUSH1 0xE0 SHL PUSH1 0x0 MSTORE PUSH1 0x32 PUSH1 0x4 MSTORE PUSH1 0x24 PUSH1 0x0 REVERT JUMPDEST CALLDATALOAD PUSH1 0x1 PUSH1 0x1 PUSH1 0xA0 SHL SUB DUP2 AND DUP2 SUB PUSH2 0x13CB JUMPI SWAP1 JUMP INVALID SWAP16 0x2D CREATE INVALID 0xD2 0xC7 PUSH23 0x48DE5860A4CC508CD0818C85B8B8A1AB4CEEEF8D981C89 JUMP 0xA6 LOG2 PUSH5 0x6970667358 0x22 SLT KECCAK256 SELFBALANCE DELEGATECALL SWAP15 SWAP8 0x29 PUSH24 0x26E328BCBE3AFA01204967FE08704B18926055AF0F02327F 0x21 SWAP11 PUSH5 0x736F6C6343 STOP ADDMOD EQ STOP CALLER 0x2F DUP8 DUP9 GT PUSH31 0x7EFF1D82E926EC794901D17C78024A50270940304540A733656F0D65D7A28E ORIGIN PUSH6 0xB37A6474929F CALLER PUSH6 0x21B332C1681B SWAP4 EXTCODEHASH PUSH13 0xB9F3376673440D862A9F2DF0FE 0xD2 0xC7 PUSH23 0x48DE5860A4CC508CD0818C85B8B8A1AB4CEEEF8D981C89 JUMP 0xA6 LOG4 SWAP9 SMOD KECCAK256 0x5C 0xE4 0xD3 SSTORE MULMOD 0x2E CREATE2 0xA8 LOG1 DUP16 JUMP 0xE8 SWAP2 EXTCODECOPY DELEGATECALL LOG2 ADD 0xFB 0xE2 DUP8 DUP3 JUMPDEST MULMOD JUMP SWAP4 0xC2 OR PUSH22 0x0 "},"methodIdentifiers":{"ADMIN_ROLE()":"75b238fc","DEFAULT_ADMIN_ROLE()":"a217fddf","DOMAIN_SEPARATOR()":"3644e515","MAX_MINT_PER_TX()":"8ecad721","MAX_SUPPLY()":"32cb6b0c","MINTER_ROLE()":"d5391393","MINT_COOLDOWN()":"f7ee7a43","PAUSER_ROLE()":"e63ab1e9","addMinter(address)":"983b2d56","allowance(address,address)":"dd62ed3e","approve(address,uint256)":"095ea7b3","balanceOf(address)":"70a08231","batchMint(address[],uint256[])":"68573107","burn(uint256)":"42966c68","burnFrom(address,uint256)":"79cc6790","canMintTo(address)":"73912c27","decimals()":"313ce567","eip712Domain()":"84b0196e","emergencyMint(address,uint256)":"43785dc9","getRoleAdmin(bytes32)":"248a9ca3","grantRole(bytes32,address)":"2f2ff15d","hasRole(bytes32,address)":"91d14854","lastMintTime(address)":"6aa71d18","mint(address,uint256)":"40c10f19","name()":"06fdde03","nonces(address)":"7ecebe00","pause()":"8456cb59","paused()":"5c975abb","permit(address,address,uint256,uint256,uint8,bytes32,bytes32)":"d505accf","remainingMintableSupply()":"349f0b90","removeMinter(address)":"3092afd5","renounceRole(bytes32,address)":"36568abe","revokeRole(bytes32,address)":"d547741f","supportsInterface(bytes4)":"01ffc9a7","symbol()":"95d89b41","totalMinted()":"a2309ff8","totalSupply()":"18160ddd","transfer(address,uint256)":"a9059cbb","transferFrom(address,address,uint256)":"23b872dd","unpause()":"3f4ba83a"}}}}}